:020000040800F2
:10000000008001204D0C0108AF930008B593000853
:10001000BB930008C1930008C793000800000000CC
:10002000000000000000000000000000F56600086D
:10003000CD93000800000000B1660008E1650008EB
:100040009D0C01089D0C01089D0C01089D0C0108E8
:100050009D0C01089D0C01089D0C01089D0C0108D8
:100060009D0C01089D0C01089D0C0108DB93000804
:10007000292000089D0C01089D0C01089D0C010819
:10008000E9930008F7930008059400089D0C010807
:100090009D0C01089D0C01089D0C01089D0C010898
:1000A0009D0C0108159400089D0C01089D0C010889
:1000B0009D0C01089D0C01089D0C01089D0C010878
:1000C0009D0C01089D0C01089D0C01089D0C010868
:1000D0009D0C01089D0C01089D0C01089D0C010858
:1000E0009D0C01089D0C01089D0C01089D0C010848
:1000F0009D0C01089D0C01089D0C01089D0C010838
:100100009D0C01089D0C01089D0C01089D0C010827
:100110009D0C01089D0C01089D0C01089D0C010817
:100120009D0C01089D0C01089D0C01089D0C010807
:100130009D0C01089D0C01089D0C01089D0C0108F7
:100140009D0C01089D0C01089D0C010829940008D4
:100150009D0C01089D0C01089D0C01089D0C0108D7
:100160009D0C01089D0C01089D0C01089D0C0108C7
:100170009D0C01089D0C01089D0C01080000000069
:080180009D0C01089D0C010813
:1001880081F0004102E000BF83F0004330B54FEA40
:1001980041044FEA430594EA050F08BF90EA020FAD
:1001A8001FBF54EA000C55EA020C7FEA645C7FEA40
:1001B800655C00F0E2804FEA5454D4EB5555B8BF63
:1001C8006D420CDD2C4480EA020281EA030382EAD4
:1001D800000083EA010180EA020281EA0303362D66
:1001E80088BF30BD11F0004F4FEA01314FF4801C39
:1001F8004CEA113102D0404261EB410113F0004F4B
:100208004FEA03334CEA133302D0524263EB430301
:1002180094EA050F00F0A780A4F10104D5F1200E9F
:100228000DDB02FA0EFC22FA05F2801841F10001FA
:1002380003FA0EF2801843FA05F359410EE0A5F1CE
:1002480020050EF1200E012A03FA0EFC28BF4CF0FF
:10025800020C43FA05F3C01851EBE37101F00045B5
:1002680007D54FF0000EDCF1000C7EEB00006EEBC2
:100278000101B1F5801F1BD3B1F5001F0CD349084C
:100288005FEA30004FEA3C0C04F101044FEA4452A3
:1002980012F5800F80F09A80BCF1004F08BF5FEA2A
:1002A800500C50F1000041EB045141EA050130BD0A
:1002B8005FEA4C0C404141EB0101013C28BFB1F51C
:1002C800801FE9D291F0000F04BF01460020B1FA67
:1002D80081F308BF2033A3F10B03B3F120020CDA3A
:1002E8000C3208DD02F1140CC2F10C0201FA0CF018
:1002F80021FA02F10CE002F11402D8BFC2F1200C7D
:1003080001FA02F120FA0CFCDCBF41EA0C01904032
:10031800E41AA2BF01EB0451294330BD6FEA04047B
:100328001F3C1CDA0C340EDC04F11404C4F1200266
:1003380020FA04F001FA02F340EA030021FA04F378
:1003480045EA030130BDC4F10C04C4F1200220FACF
:1003580002F001FA04F340EA0300294630BD21FA0D
:1003680004F0294630BD94F0000F83F4801306BFD3
:1003780081F480110134013D4EE77FEA645C18BFC7
:100388007FEA655C29D094EA050F08BF90EA020F5E
:1003980005D054EA000C04BF1946104630BD91EA56
:1003A800030F1EBF0021002030BD5FEA545C05D159
:1003B8004000494128BF41F0004130BD14F5800498
:1003C8003CBF01F5801130BD01F0004545F0FE410C
:1003D80041F470014FF0000030BD7FEA645C1ABF41
:1003E800194610467FEA655C1CBF0B46024650EA78
:1003F800013406BF52EA033591EA030F41F40021A4
:1004080030BD00BF90F0000F04BF0021704730B529
:100418004FF4806404F132044FF000054FF00001FE
:1004280050E700BF90F0000F04BF0021704730B5BF
:100438004FF4806404F1320410F0004548BF404294
:100448004FF000013EE700BF42004FEAE2014FEAE9
:1004580031014FEA02701FBF12F07F4393F07F4FC4
:1004680081F06051704732F07F4208BF704793F0C7
:100478007F4F04BF41F40021704730B54FF46074DA
:1004880001F0004521F000411CE700BF50EA0102DD
:1004980008BF704730B54FF000050AE050EA010286
:1004A80008BF704730B511F0004502D5404261EBF6
:1004B80041014FF4806404F132045FEA915C3FF437
:1004C800D8AE4FF003025FEADC0C18BF03325FEAD4
:1004D800DC0C18BF033202EBDC02C2F1200300FA85
:1004E80003FC20FA02F001FA03FE40EA0E0021FAAA
:1004F80002F11444BDE600BF70B54FF0FF0C4CF498
:10050800E06C1CEA11541DBF1CEA135594EA0C0F49
:1005180095EA0C0F00F0DEF82C4481EA030621EA84
:100528004C5123EA4C5350EA013518BF52EA0335BF
:1005380041F4801143F4801338D0A0FB02CE4FF071
:100548000005E1FB02E506F00042E0FB03E54FF0A1
:100558000006E1FB03569CF0000F18BF4EF0010E99
:10056800A4F1FF04B6F5007F64F5407404D25FEA95
:100578004E0E6D4146EB060642EAC62141EA555148
:100588004FEAC52040EA5E504FEACE2EB4F1FD0C8A
:1005980088BFBCF5E06F1ED8BEF1004F08BF5FEA08
:1005A800500E50F1000041EB045170BD06F00046BA
:1005B80046EA010140EA020081EA0301B4EB5C0467
:1005C800C2BFD4EB0C0541EA045170BD41F480115F
:1005D8004FF0000E013C00F3AB8014F1360FDEBF84
:1005E800002001F0004170BDC4F10004203C35DA60
:1005F8000C341BDC04F11404C4F1200500FA05F3E3
:1006080020FA04F001FA05F240EA020001F0004283
:1006180021F0004110EBD37021FA04F642EB0601F9
:100628005EEA430E08BF20EAD37070BDC4F10C0423
:10063800C4F1200500FA04F320FA05F001FA04F2E7
:1006480040EA020001F0004110EBD37041F10001D3
:100658005EEA430E08BF20EAD37070BDC4F12005DE
:1006680000FA05F24EEA020E20FA04F301FA05F246
:1006780043EA020321FA04F001F0004121FA04F2EE
:1006880020EA020000EBD3705EEA430E08BF20EABE
:10069800D37070BD94F0000F0FD101F000464000F8
:1006A80041EB010111F4801F08BF013CF7D041EA7A
:1006B800060195F0000F18BF704703F0004652007E
:1006C80043EB030313F4801F08BF013DF7D043EA4F
:1006D8000603704794EA0C0F0CEA135518BF95EA05
:1006E8000C0F0CD050EA410618BF52EA4306D1D18C
:1006F80081EA030101F000414FF0000070BD50EAAB
:10070800410606BF1046194652EA430619D094EA34
:100718000C0F02D150EA013613D195EA0C0F05D11E
:1007280052EA03361CBF104619460AD181EA030172
:1007380001F0004141F0FE4141F470014FF000002A
:1007480070BD41F0FE4141F4780170BD70B54FF0C5
:10075800FF0C4CF4E06C1CEA11541DBF1CEA135545
:1007680094EA0C0F95EA0C0F00F0A7F8A4EB050427
:1007780081EA030E52EA03354FEA013100F088801E
:100788004FEA03334FF0805545EA131343EA1263E7
:100798004FEA022245EA111545EA10654FEA00269C
:1007A8000EF000419D4208BF964244F1FD0404F555
:1007B800407402D25B084FEA3202B61A65EB0305B1
:1007C8005B084FEA32024FF480104FF4002CB6EB6E
:1007D800020E75EB030E22BFB61A754640EA0C00EE
:1007E8005B084FEA3202B6EB020E75EB030E22BF2E
:1007F800B61A754640EA5C005B084FEA3202B6EB6F
:10080800020E75EB030E22BFB61A754640EA9C002D
:100818005B084FEA3202B6EB020E75EB030E22BFFD
:10082800B61A754640EADC0055EA060E18D04FEABB
:10083800051545EA16754FEA06164FEAC30343EA5B
:1008480052734FEAC2025FEA1C1CC0D111F4801F28
:100858000BD141EA00014FF000004FF0004CB6E721
:1008680011F4801F04BF01430020B4F1FD0C88BFC0
:10087800BCF5E06F3FF6AFAEB5EB030C04BFB6EBCB
:10088800020C5FEA500C50F1000041EB045170BDBE
:100898000EF0004E4EEA113114EB5C04C2BFD4EBEB
:1008A8000C0541EA045170BD41F480114FF0000E6F
:1008B800013C90E645EA060E8DE60CEA135594EAEB
:1008C8000C0F08BF95EA0C0F3FF43BAF94EA0C0FEE
:1008D8000AD150EA01347FF434AF95EA0C0F7FF463
:1008E80025AF104619462CE795EA0C0F06D152EAB7
:1008F80003353FF4FDAE1046194622E750EA41069B
:1009080018BF52EA43067FF4C5AE50EA41047FF4AB
:100918000DAF52EA43057FF4EBAE12E74FF0FF3C10
:1009280006E000BF4FF0010C02E000BF4FF0010CE1
:100938004DF804CD4FEA410C7FEA6C5C4FEA430C5A
:1009480018BF7FEA6C5C1BD001B050EA410C0CBFA9
:1009580052EA430C91EA030F02BF90EA020F00200B
:10096800704710F1000F91EA030F58BF994208BF72
:1009780090422CBFD8176FEAE37040F0010070472F
:100988004FEA410C7FEA6C5C02D150EA013C07D186
:100998004FEA430C7FEA6C5CD6D152EA033CD3D0D1
:1009A8005DF8040B704700BF8446104662468C46CB
:1009B8001946634600E000BF01B5FFF7B7FF0028FE
:1009C80048BF10F1000F01BD4DF808EDFFF7F4FF27
:1009D8000CBF012000205DF808FB00BF4DF808EDB2
:1009E800FFF7EAFF34BF012000205DF808FB00BFD5
:1009F8004DF808EDFFF7E0FF94BF012000205DF8F7
:100A080008FB00BF4DF808EDFFF7CEFF94BF0120AB
:100A180000205DF808FB00BF4DF808EDFFF7C4FFA4
:100A280034BF012000205DF808FB00BF4FEA410CED
:100A38007FEA6C5C02D150EA013C0AD14FEA430CD0
:100A48007FEA6C5C02D152EA033C02D14FF000000D
:100A580070474FF0010070474A0011D212F500129A
:100A680011D20DD56FF47873B3EB62520ED44FEAFE
:100A7800C12343F0004343EA505323FA02F070477E
:100A88004FF00000704750EA013002D14FF0FF30BC
:100A980070474FF0000070474FEA4102B2F1E0435F
:100AA80024BFB3F5001CDCF1FE5C0DD901F0004C4D
:100AB8004FEAC0024CEA5070B2F1004F40EB83009D
:100AC80008BF20F00100704711F0804F21D113F1C9
:100AD8003872BCBF01F00040704741F480114FEA02
:100AE8005252C2F11802C2F1200C10FA0CF320FA8B
:100AF80002F018BF40F001004FEAC1234FEAD323A8
:100B080003FA0CFC40EA0C0023FA02F34FEA430311
:100B1800CCE77FEA625307D150EA01331EBF4FF09A
:100B2800FE4040F44000704701F0004040F0FE40B5
:100B380040F40000704700BF0348044B834202D0D2
:100B4800034B03B118477047D8020020D802002091
:100B5800000000000548064B1B1AD90F01EBA30142
:100B6800491002D0034B03B118477047D802002040
:100B7800D80200200000000010B5064C237843B9C5
:100B8800FFF7DAFF044B13B10448AFF300800123E9
:100B9800237010BDD8020020000000007C1201085C
:100BA80008B5054B1BB105490548AFF30080BDE802
:100BB8000840FFF7CFBF00BF00000000DC020020A4
:100BC8007C12010880B485B000AF78607B681B6830
:100BD80003F06003FB60FB68002B04D17B681B6893
:100BE80003F01003FB60FB6818461437BD465DF838
:100BF800047B704780B483B000AF78607B681B6B60
:100C080018460C37BD465DF8047B704780B483B046
:100C180000AF786039607B681A6A3B681A437B6862
:100C28001A6200BF0C37BD465DF8047B704780B47C
:100C380083B000AF786039607B681A6A3B68DB4331
:100C48001A407B681A6200BF0C37BD465DF8047B0A
:100C5800704780B483B000AF78607B685B6C43F406
:100C680000427B685A6400BF0C37BD465DF8047BC0
:100C7800704780B483B000AF78607B68DB6843F06E
:100C880001027B68DA6000BF0C37BD465DF8047B63
:100C9800704780B483B000AF78607B68DB6823F06E
:100CA80001027B68DA6000BF0C37BD465DF8047B43
:100CB800704780B483B000AF78607B68DB6803F06E
:100CC8000103012B01D1012300E0002318460C3752
:100CD800BD465DF8047B704780B483B000AF786090
:100CE8007B68DB6843F002027B68DA6000BF0C3780
:100CF800BD465DF8047B704780B483B000AF786070
:100D08007B68DB6823F002027B68DA6000BF0C377F
:100D1800BD465DF8047B704780B483B000AF78604F
:100D28007B68DB6803F00203022B01D1012300E09A
:100D3800002318460C37BD465DF8047B704780B425
:100D480083B000AF78607B68DB6843F004027B689F
:100D5800DA6000BF0C37BD465DF8047B704780B48D
:100D680083B000AF78607B68DB6823F004027B689F
:100D7800DA6000BF0C37BD465DF8047B704780B46D
:100D880083B000AF78607B68DB6803F00403042B52
:100D980001D1012300E0002318460C37BD465DF859
:100DA800047B704780B483B000AF78607B68DB68F1
:100DB80043F008027B68DA6000BF0C37BD465DF877
:100DC800047B704780B483B000AF78607B68DB68D1
:100DD80023F008027B68DA6000BF0C37BD465DF877
:100DE800047B704780B483B000AF78607B68DB68B1
:100DF80003F00803082B01D1012300E00023184663
:100E08000C37BD465DF8047B704780B483B000AFF3
:100E180078607B68DB6843F010027B68DA6000BFAB
:100E28000C37BD465DF8047B704780B483B000AFD3
:100E380078607B68DB6823F010027B68DA6000BFAB
:100E48000C37BD465DF8047B704780B483B000AFB3
:100E580078607B68DB6803F01003102B01D1012355
:100E680000E0002318460C37BD465DF8047B704748
:100E780080B483B000AF78607B68DB6843F0200201
:100E88007B68DA6000BF0C37BD465DF8047B7047AD
:100E980080B483B000AF78607B68DB6823F0200201
:100EA8007B68DA6000BF0C37BD465DF8047B70478D
:100EB80080B483B000AF78607B68DB6803F0200300
:100EC800202B01D1012300E0002318460C37BD4632
:100ED8005DF8047B704780B483B000AF78607B68AE
:100EE800DB6843F040027B68DA6000BF0C37BD4620
:100EF8005DF8047B704780B483B000AF78607B688E
:100F0800DB6823F040027B68DA6000BF0C37BD461F
:100F18005DF8047B704780B483B000AF78607B686D
:100F2800DB6803F04003402B01D1012300E00023DC
:100F380018460C37BD465DF8047B704780B483B013
:100F480000AF78607B68DB6843F080027B68DA601A
:100F580000BF0C37BD465DF8047B704780B483B092
:100F680000AF78607B68DB6823F080027B68DA601A
:100F780000BF0C37BD465DF8047B704780B483B072
:100F880000AF78607B68DB6803F08003802B01D1B9
:100F9800012300E0002318460C37BD465DF8047BAA
:100FA800704780B582B000AF78600B467B807B8845
:100FB80003F00103002B0CD07B681B681846FFF771
:100FC800AAFF0346012B04D07B681B681846FFF76D
:100FD80082FF7B8803F00203002B0CD07B681B6820
:100FE8001846FFF799FE0346012B04D07B681B685F
:100FF8001846FFF771FE7B8803F00403002B0CD022
:101008007B681B681846FFF7BAFE0346012B04D01D
:101018007B681B681846FFF792FE7B8803F008037D
:10102800002B0CD07B681B681846FFF7DBFE0346D5
:10103800012B04D07B681B681846FFF7B3FE7B883A
:1010480003F01003002B0CD07B681B681846FFF7D1
:10105800FCFE0346012B04D07B681B681846FFF78B
:10106800D4FE7B8803F02003002B0CD07B681B6820
:101078001846FFF71EFE0346012B04D07B681B6849
:101088001846FFF7F6FD7B8803F04003002B0CD0D1
:101098007B681B681846FFF771FF0346012B04D0D5
:1010A8007B681B681846FFF749FF7B8803F08003BD
:1010B800002B0CD07B681B681846FFF7F9FE034627
:1010C800012B04D07B681B681846FFF7D1FE00BFD0
:1010D8000837BD4680BD80B582B000AF78600B464A
:1010E8007B807B8803F00103002B0CD07B681B6896
:1010F8001846FFF710FF0346012B04D17B681B68D5
:101108001846FFF7F8FE7B8803F00203002B0CD08B
:101118007B681B681846FFF7FFFD0346012B04D1C7
:101128007B681B681846FFF7E7FD7B8803F004031C
:10113800002B0CD07B681B681846FFF720FE03467F
:10114800012B04D17B681B681846FFF708FE7B88D3
:1011580003F00803002B0CD07B681B681846FFF7C8
:1011680041FE0346012B04D17B681B681846FFF734
:1011780029FE7B8803F01003002B0CD07B681B68CA
:101188001846FFF762FE0346012B04D17B681B68F3
:101198001846FFF74AFE7B8803F02003002B0CD08B
:1011A8007B681B681846FFF784FD0346012B04D0B3
:1011B8007B681B681846FFF76CFD7B8803F04003CB
:1011C800002B0CD07B681B681846FFF7D7FE034638
:1011D800012B04D17B681B681846FFF7BFFE7B888C
:1011E80003F08003002B0CD07B681B681846FFF7C0
:1011F8005FFE0346012B04D17B681B681846FFF786
:1012080047FE00BF0837BD4680BD000080B582B0EC
:1012180000AF78600B46FB70FB78022B06D17B6829
:101228001B6801211846FFF7F1FC31E07B681B6859
:10123800194A934213D07B681B68184A93420ED010
:101248007B681B68164A934209D07B681B68154A5D
:10125800934204D07B681B68134A934218D1FB78E9
:10126800032B06D17B681B6804211846FFF7CEFCC8
:101278000EE0FB78042B0BD17B681B680121184614
:10128800FFF7C4FC7B681B6804211846FFF7BEFC07
:1012980000BF0837BD4680BD002C01400034014026
:1012A80000400140004401400048014080B582B040
:1012B80000AF78600B46FB70FB78022B06D17B6889
:1012C8001B6801211846FFF7B2FC31E07B681B68F8
:1012D800194A934213D07B681B68184A93420ED070
:1012E8007B681B68164A934209D07B681B68154ABD
:1012F800934204D07B681B68134A934218D1FB7849
:10130800032B06D17B681B6804211846FFF78FFC66
:101318000EE0FB78042B0BD17B681B680121184673
:10132800FFF785FC7B681B6804211846FFF77FFCE4
:1013380000BF0837BD4680BD002C01400034014085
:1013480000400140004401400048014080B582B09F
:1013580000AF78600B46FB70FB78022B06D17B68E8
:101368001B6810211846FFF751FC31E07B681B68A9
:10137800194A934213D07B681B68184A93420ED0CF
:101388007B681B68164A934209D07B681B68154A1C
:10139800934204D07B681B68134A934218D1FB78A8
:1013A800032B06D17B681B6840211846FFF72EFCEB
:1013B8000EE0FB78042B0BD17B681B6810211846C4
:1013C800FFF724FC7B681B6840211846FFF71EFCCA
:1013D80000BF0837BD4680BD002C014000340140E5
:1013E80000400140004401400048014080B582B0FF
:1013F80000AF78600B46FB70FB78022B06D17B6848
:101408001B6810211846FFF712FC31E07B681B6847
:10141800194A934213D07B681B68184A93420ED02E
:101428007B681B68164A934209D07B681B68154A7B
:10143800934204D07B681B68134A934218D1FB7807
:10144800032B06D17B681B6840211846FFF7EFFB8A
:101458000EE0FB78042B0BD17B681B681021184623
:10146800FFF7E5FB7B681B6840211846FFF7DFFBA9
:1014780000BF0837BD4680BD002C01400034014044
:1014880000400140004401400048014080B582B05E
:1014980000AF78600B46FB70FB78022B07D17B68A6
:1014A8001B684FF480711846FFF7B0FB34E07B6887
:1014B8001B681B4A934213D07B681B68194A9342E6
:1014C8000ED07B681B68184A934209D07B681B685A
:1014D800164A934204D07B681B68154A93421BD175
:1014E800FB78032B07D17B681B684FF48061184693
:1014F800FFF78CFB10E0FB78042B0DD17B681B6891
:101508004FF480711846FFF781FB7B681B684FF426
:1015180080611846FFF77AFB00BF0837BD4680BDDB
:10152800002C0140003401400040014000440140CB
:101538000048014080B582B000AF78600B46FB7070
:10154800FB78022B07D17B681B684FF48071184623
:10155800FFF76DFB34E07B681B681B4A934213D08E
:101568007B681B68194A93420ED07B681B68184A2F
:10157800934209D07B681B68164A934204D07B6863
:101588001B68154A93421BD1FB78032B07D17B6854
:101598001B684FF480611846FFF749FB10E0FB78A1
:1015A800042B0DD17B681B684FF480711846FFF738
:1015B8003EFB7B681B684FF480611846FFF737FBDA
:1015C80000BF0837BD4680BD002C014000340140F3
:1015D80000400140004401400048014080B582B00D
:1015E80000AF78600B46FB70FB78022B06D17B6856
:1015F8001B684FF480511846FFF708FB00BF0837F7
:10160800BD4680BD80B582B000AF78600B46FB70E8
:10161800FB78022B06D17B681B684FF48051184673
:10162800FFF705FB00BF0837BD4680BD80B584B015
:1016380000AF78600023FB607B681B68304A9342E8
:1016480001D1304BFB607B681A68FB681A60FB6845
:101658001B681846FFF7B6FAB860BB68002B06D0BF
:10166800BB68102B03D0FB6801221A7102E0FB68EB
:1016780000221A71FB681B68234A934213D0FB6847
:101688001B68224A93420ED0FB681B68204A93428B
:1016980009D0FB681B681F4A934204D0FB681B688B
:1016A8001D4A934204D1FB681B681846FFF7D1FA1C
:1016B800FB681B68144A934213D0FB681B68134AE3
:1016C80093420ED0FB681B68114A934209D0FB680D
:1016D8001B68104A934204D0FB681B680E4A934269
:1016E80008D17B681B681846FFF784FA0346DAB20C
:1016F800FB685A71FB6818461037BD4680BD00BFAD
:1017080000040040F4020020002C01400034014095
:1017180000400140004401400048014080B485B0C9
:1017280000AF786039603B68002B03D17B68403399
:10173800FB6001E0044BFB60FB6818461437BD46AC
:101748005DF8047B704700BF0C03045080B483B07D
:1017580000AF78607B68DB6803F44063002B01D13D
:10176800012300E0002318460C37BD465DF8047BD2
:10177800704780B483B000AF786039607B681B6BBA
:1017880023F00F023B681A437B681A6300BF0C37CB
:10179800BD465DF8047B704780B483B000AF7860C5
:1017A80039607B68DB6823F003023B681A437B6877
:1017B800DA6000BF0C37BD465DF8047B704780B423
:1017C80083B000AF78607B68DB6C03F0C003002B4C
:1017D80001D1012300E0002318460C37BD465DF80F
:1017E800047B704780B483B000AF78607B689B68E7
:1017F80023F0004323F03F0343F001027B689A6023
:1018080000BF0C37BD465DF8047B704780B483B0D9
:1018180000AF78607B689B6823F0004323F03F03A8
:1018280043F002027B689A6000BF0C37BD465DF842
:10183800047B704780B483B000AF78607B689B6896
:1018480003F00103012B01D1012300E00023184616
:101858000C37BD465DF8047B704780B483B000AF99
:10186800786039607B689B6823F0404323F03F032E
:101878003A6802F08042134343F000427B689A6062
:1018880000BF0C37BD465DF8047B704780B483B059
:1018980000AF78607B689B6803F00043B3F1004FAA
:1018A80001D1012300E0002318460C37BD465DF83E
:1018B800047B704780B483B000AF78607B689B6816
:1018C80023F0004323F03F0343F004027B689A604F
:1018D80000BF0C37BD465DF8047B704780B483B009
:1018E80000AF78607B689B6823F0004323F03F03D8
:1018F80043F008027B689A6000BF0C37BD465DF86C
:10190800047B704780B483B000AF78607B681B6845
:1019180003F00803082B01D1012300E00023184637
:101928000C37BD465DF8047B704780B483B000AFC8
:1019380078607B681B6803F01003102B01D101232A
:1019480000E0002318460C37BD465DF8047B70475D
:1019580080B483B000AF78607B6810221A6000BF43
:101968000C37BD465DF8047B704780B483B000AF88
:1019780078607B685B6843F008027B685A6000BF48
:101988000C37BD465DF8047B704780B483B000AF68
:1019980078607B685B6843F040027B685A6000BFF0
:1019A8000C37BD465DF8047B704780B483B000AF48
:1019B80078607B685B6823F008027B685A6000BF28
:1019C8000C37BD465DF8047B704780B483B000AF28
:1019D80078607B685B6823F010027B685A6000BF00
:1019E8000C37BD465DF8047B704780B483B000AF08
:1019F80078607B685B6823F040027B685A6000BFB0
:101A08000C37BD465DF8047B704780B483B000AFE7
:101A180078607B685B6823F080027B685A6000BF4F
:101A28000C37BD465DF8047B704780B483B000AFC7
:101A380078607B685B6803F01003102B01D10123E9
:101A480000E0002318460C37BD465DF8047B70475C
:101A580080B483B000AF78607B685B6803F0800374
:101A6800802B01D1012300E0002318460C37BD4626
:101A78005DF8047B7047000080B485B000AF7860E3
:101A880039607B68FB600C4A3B6813441B781A4634
:101A9800FB6813441B6808493A680A4412781146DF
:101AA800FA680A4443F00103136000BF1437BD46C7
:101AB8005DF8047B704700BFEC12010880B485B064
:101AC80000AF786039607B68FB600C4A3B68134460
:101AD8001B781A46FB6813441B6808493A680A448D
:101AE80012781146FA680A4423F00103136000BF14
:101AF8001437BD465DF8047B704700BFEC1201083F
:101B080080B485B000AF786039607B68FB60084AB4
:101B18003B6813441B781A46FB6813441B6803F0A0
:101B2800200318461437BD465DF8047B704700BF94
:101B3800EC12010880B487B000AFF860B9607A6031
:101B4800FB687B610D4ABB6813441B781A467B69A6
:101B580013445B681B0C1B040849BA680A441278D2
:101B680011467A690A4411467A6813434B6000BFEC
:101B78001C37BD465DF8047B704700BFEC120108B6
:101B880080B487B000AFF860B9607A603B60FB68EA
:101B98007B613B6A102B14D1174ABB6813441B782E
:101BA8001A467B6913441A467B68D360124ABB689D
:101BB80013441B781A467B6913441A463B689360A2
:101BC80013E00D4ABB6813441B781A467B6913441B
:101BD8001A467B689360084ABB6813441B781A4608
:101BE8007B6913441A463B68D36000BF1C37BD4667
:101BF8005DF8047B704700BFEC12010880B487B021
:101C080000AFF860B9607A60FB687B61074ABB681F
:101C180013441B781A467B6913441A467B68936001
:101C280000BF1C37BD465DF8047B7047EC12010805
:101C380080B483B000AF78607B681B6803F0200332
:101C4800202B01D1012300E0002318460C37BD46A4
:101C58005DF8047B704780B483B000AF78607B6820
:101C680020225A6000BF0C37BD465DF8047B7047E0
:101C780080B485B000AF786039607B68FB600C4A3F
:101C88003B6813441B781A46FB6813441B680849D1
:101C98003A680A4412781146FA680A4443F0020383
:101CA800136000BF1437BD465DF8047B704700BF62
:101CB800EC12010880B485B000AF786039607B68A9
:101CC800FB600C4A3B6813441B781A46FB681344B4
:101CD8001B6808493A680A4412781146FA680A44A7
:101CE80043F00803136000BF1437BD465DF8047B5A
:101CF800704700BFEC12010880B485B000AF78606F
:101D080039607B68FB600C4A3B6813441B781A46B1
:101D1800FB6813441B6808493A680A44127811465C
:101D2800FA680A4423F00203136000BF1437BD4663
:101D38005DF8047B704700BFEC12010880B485B0E1
:101D480000AF786039607B68FB600C4A3B681344DD
:101D58001B781A46FB6813441B6808493A680A440A
:101D680012781146FA680A4423F00403136000BF8E
:101D78001437BD465DF8047B704700BFEC120108BC
:101D880080B485B000AF786039607B68FB600C4A2E
:101D98003B6813441B781A46FB6813441B680849C0
:101DA8003A680A4412781146FA680A4423F008038C
:101DB800136000BF1437BD465DF8047B704700BF51
:101DC800EC12010880B485B000AF786039607B6898
:101DD800FB600A4A3B6813441B781A46FB681344A5
:101DE8001B6803F00203022B01D1012300E000234A
:101DF80018461437BD465DF8047B7047EC1201089D
:101E080080B584B000AF78600123FB817B681B69D3
:101E18001846FFF79BFC0346002B2FD07B685B7AA4
:101E2800DBB2022B11D07B685B7ADBB2042B0CD0BF
:101E38007B685B7ADBB2082B07D07B681B69184686
:101E4800FFF760FD0346012B18D1786800F0F8F819
:101E58000346002B12D17B685B7ADBB2082B03D1D7
:101E68007B6801225A7202E07B6820225A727B68E2
:101E78001B691846FFF71EFD0023FB81FB891846E6
:101E88001037BD4680BD80B586B002AFF860B96036
:101E98007A603B600021F868FFF740FC03461A4669
:101EA8007968B868FFF7AAFE0021F868FFF736FCE2
:101EB80002463B68002100917968B868FFF760FE28
:101EC800BA697968B868FFF735FE7968B868FFF7C6
:101ED800CFFE7968B868FFF7EDFE7968B868FFF754
:101EE800CBFD00BF1037BD4680BD80B584B000AFC4
:101EF800F860B9607A607968B868FFF7DFFD7968DB
:101F0800B868FFF71BFF7968B868FFF739FF796889
:101F1800B868FFF7F1FE00227968B868FFF70AFE93
:101F280000BF1037BD4680BD80B584B000AF786073
:101F380039600223FB737B68DB79012B0FD17B6847
:101F4800DA687B681B685B00D118FB7B7A681268CB
:101F580002FB03F31A4638680FF07EF90AE07B6843
:101F6800D968FB7B7A68126802FB03F31A46386863
:101F78000FF072F900BF1037BD4680BD80B586B03E
:101F880000AFF860B9607A60FB685A69FB689B79B2
:101F980019461046FFF716FF0346DBB2012B37D16F
:101FA800FB685A69BB68104698470346012B2FD136
:101FB800FB6804225A72FB685A697B681046984786
:101FC800FB685A69FB689B7919461046FFF798FD2C
:101FD8000346002B19D1FB685A69FB689B7919469F
:101FE8001046FFF76BFDFB685869FB689B7919463B
:101FF800FB681B681A46FFF79DFDFB685A69FB687A
:102008009B7919461046FFF737FD0123FB7501E060
:102018000023FB75FB7D18461837BD4680BD0000C0
:1020280080B500AF034A04490448FFF7A7FF00BF83
:1020380080BD00BF5F1C0008391C00088003002019
:1020480080B582B000AF78607B681B691846FFF7DF
:102058006CFC0346DBB2012B07D17B681B69184671
:10206800FFF776FC7B6810225A727B685B7ADBB2DA
:10207800102B0CBF01230023DBB218460837BD46DE
:1020880080BD80B582B000AF78600B46FB70FB78EE
:10209800012B0DD17B681B691846FFF757FB0346D8
:1020A800012B12D07B681B691846FFF703FC0CE074
:1020B8007B681B691846FFF782FB0346012B04D097
:1020C8007B681B691846FFF709FC00BF0837BD4647
:1020D80080BD000090B589B002AFF860084611468F
:1020E8001A4603467B810B463B811346FB8000233F
:1020F8007B61FB681B693C4A934201D13B4B7B6186
:102108007B69002B6BD0FB681A697B691A617B6954
:102118000022DA71FB88012B61D03B89002B47D064
:102128007B695B7ADBB2082B42D0FB68DA687B6993
:10213800DA60FB681A687B691A60FB685A697B6910
:102148005A61FB689A797B699A71FB681A797B698D
:102158001A717B691B69B96A1846FFF70AFB7B8904
:10216800012B21D07B89042B16D17B691B690321A4
:102178001846FFF711FB7B6918697B6959697B6908
:102188009B791C467B69DA687B691B680093134658
:102198002246FFF778FE07E07B89022B04D17B6992
:1021A8001B691846FFF7E1FB7B6908225A7216E0A3
:1021B8003B89002B13D17B699B7ADBB2082B0ED0AD
:1021C800FB685A797B695A717B89022B04D17B6938
:1021D8001B691846FFF7D9FB7B6908229A727B694D
:1021E80018461C37BD4690BD0001045080030020EE
:1021F80080B582B000AF78607B681B691846FFF72E
:1022080019FB0346002B04D17B681B691846FFF7AE
:10221800E9FA00BF0837BD4680BD80B586B000AF7B
:10222800F8600B467A607B810123FB82FB681B699F
:10223800002B46D07B89012B05D1F868FFF7E0FD1C
:102248000346FB823DE07B89042B1FD1FB681B6999
:102258001846FFF77BFA0346002B32D0FB680122B1
:102268005A72FB681B691846FFF724FB00BFFB681E
:102278005B7ADBB2042BFAD17968F868FFF754FE71
:10228800FB6808225A720023FB821AE07B89022B22
:1022980017D1FB685B7ADBB2202B09D0FB685B7A2D
:1022A800DBB2042B04D0FB685B7ADBB2102B08D1BD
:1022B800FB6808225A727968F868FFF735FE002330
:1022C800FB82FB8A18461837BD4680BD80B582B0B0
:1022D80000AF78600B467B8013463B807B681B69A8
:1022E8001846FFF7A7FA0346002B04D07B681B6942
:1022F8001846FFF78BFA7B681B691846FFF7A8FB9F
:102308000346002B04D07B681B691846FFF77DFB4A
:102318007B681B691846FFF788FB0346002B04D02F
:102328007B681B691846FFF750FB3B88002B35D0AC
:102338007B88012B1AD07B88022B05D17B681B690F
:102348001846FFF732FB11E07B88042B0ED17B681F
:1023580018697B6859697B689B791A46FFF7C5FD40
:102368007B681B6900211846FFF716FA7B68002274
:10237800DA607B6800221A607B6800225A617B68F9
:1023880000229A717B6800221A717B681A697B683F
:102398001B7919461046FFF7ECF90AE07B68002222
:1023A8005A717B88022B04D17B681B691846FFF79A
:1023B8001CFB00BF0837BD4680BD000080B584B057
:1023C80000AF78600B46FB707B681B691846FFF707
:1023D80031FA0346FB7397F90F30012B04D17B6860
:1023E8001B691846FFF712FAFB78002B0FD17B68A0
:1023F8001B697F211846FFF730FA00BF7B681B690D
:102408001846FFF743FA0346012BF7D040E0FB7864
:10241800012B0FD17B681B692C491846FFF71DFA61
:1024280000BF7B681B691846FFF730FA0346012B8B
:10243800F7D02DE07B681B697F211846FFF70DFA5E
:1024480000BF7B681B691846FFF720FA0346012B7B
:10245800F7D00023BB8107E000BFBB891BB29BB24A
:1024680001339BB21BB2BB81BB891BB29BB2032B4E
:10247800F2D97B681B6915491846FFF7EEF900BFCA
:102488007B681B691846FFF701FA0346012BF7D052
:102498000023BB8107E000BFBB891BB29BB201339D
:1024A8009BB21BB2BB81BB891BB29BB2032BF2D977
:1024B80097F90F30012B04D17B681B691846FFF789
:1024C80091F900BF1037BD4680BD00BF00007F40B6
:1024D80080B483B000AF78607B681B6843F001026A
:1024E8007B681A6000BF0C37BD465DF8047B7047F7
:1024F80080B483B000AF78607B681B6823F001026A
:102508007B681A6000BF0C37BD465DF8047B7047D6
:1025180080B483B000AF786039607B681B6823F0B3
:1025280004023B681A437B681A6000BF0C37BD463B
:102538005DF8047B704780B483B000AF78607B6837
:102548001B6803F0040318460C37BD465DF8047B8E
:10255800704780B483B000AF78607B68DB6A184648
:102568000C37BD465DF8047B704780B483B000AF7C
:10257800786039607B683A681A6300BF0C37BD46DB
:102588005DF8047B704780B483B000AF7860396031
:102598007B683A685A6300BF0C37BD465DF8047B18
:1025A800704780B483B000AF786039607B683A6860
:1025B8009A6300BF0C37BD465DF8047B704780B452
:1025C80083B000AF786039607B683A68DA6300BF2F
:1025D8000C37BD465DF8047B704780B483B000AF0C
:1025E800786039607B683A681A6400BF0C37BD466A
:1025F8005DF8047B704780B483B000AF78607B6877
:102608005B6B18460C37BD465DF8047B704780B499
:1026180083B000AF78607B689B6B18460C37BD466B
:102628005DF8047B704780B483B000AF78607B6846
:10263800DB6B18460C37BD465DF8047B704780B4E9
:1026480083B000AF78607B681B6C18460C37BD46BA
:102658005DF8047B704780B483B000AF78607B6816
:102668005B6943F001027B685A6100BF0C37BD46C5
:102678005DF8047B704780B483B000AF78607B68F6
:102688001B6918460C37BD465DF8047B704780B45B
:1026980083B000AF786039607B683A689A6100BFA0
:1026A8000C37BD465DF8047B704780B483B000AF3B
:1026B800786039607B683A689A6200BF0C37BD461B
:1026C8005DF8047B7047000080B584B000AF786087
:1026D80087ED000AD7ED007AF5EEC07AF1EE10FA30
:1026E80003D54FF000033B600AE0D7ED007A9FED79
:1026F800167AF4EEC77AF1EE10FA01DD134B3B605F
:102708007B681B681846FFF724FFF8607B681B7915
:10271800002B0CBF01230023DBB21A46FB681344CD
:1027280007EE903AB8EE677AD7ED007A27EE277A67
:10273800DFED056AC7EE267AFCEEE77A17EE903AE7
:1027480018461037BD4680BD0000C8420000C84288
:1027580080B582B000AF786039607B681B68184626
:10276800FFF749FF02463B68934205D07B681B6828
:1027780039681846FFF707FF00BF0837BD4680BD18
:1027880080B582B000AF786039607B681B681846F6
:10279800FFF73DFF02463B68934205D07B681B6804
:1027A80039681846FFF7FDFE00BF0837BD4680BDF3
:1027B80080B582B000AF786039607B681B681846C6
:1027C800FFF731FF02463B68934205D07B681B68E0
:1027D80039681846FFF7F3FE00BF0837BD4680BDCD
:1027E80080B582B000AF786039607B681B68184696
:1027F800FFF725FF02463B68934205D07B681B68BC
:1028080039681846FFF7E9FE00BF0837BD4680BDA6
:1028180080B584B000AF786087ED000A97ED000AB4
:102828007868FFF751FFF860F9687868FFF790FF5C
:1028380000BF1037BD4680BD80B584B000AF78605A
:1028480087ED000A97ED000A7868FFF73DFFF8600A
:10285800F9687868FFF794FF00BF1037BD4680BD60
:1028680080B584B000AF786087ED000A97ED000A64
:102878007868FFF729FFF860F9687868FFF798FF2C
:1028880000BF1037BD4680BD80B584B000AF78600A
:1028980087ED000A97ED000A7868FFF715FFF860E2
:1028A800F9687868FFF79CFF00BF1037BD4680BD08
:1028B80080B485B000AF78607B681B689A68074B66
:1028C8001340FB60FB68062B0CBF01230023DBB21F
:1028D80018461437BD465DF8047B704707000100B1
:1028E80080B584B000AF78600B46FB707B681B68CE
:1028F8001846FFF720FEF860FB78002B1ED07B6897
:102908001B68324A934213D07B681B68304A934253
:102918000ED07B681B682F4A934209D07B681B68DE
:102928002D4A934204D07B681B682C4A934205D1F8
:102938007B681B6800211846FFF717FEFB68042B0D
:1029480011D07B681B6804211846FFF7E1FD7B68FE
:102958001B681846FFF77FFE7B681B68F9681846F6
:10296800FFF7D6FD04E07B681B681846FFF773FE87
:102978007B681B681846FFF7ABFDFB78002B20D05F
:102988007B681B68114A934213D07B681B68104A06
:1029980093420ED07B681B680E4A934209D07B682D
:1029A8001B680D4A934204D07B681B680B4A93420C
:1029B80007D17B681A687B685B7919461046FFF770
:1029C800D4FD00BF1037BD4680BD00BF002C0140BC
:1029D80000340140004001400044014000480140EB
:1029E80080B582B000AF78607B681B681846FFF737
:1029F8007FFD00BF0837BD4680BD000080B483B0AE
:102A080000AF78600C4B5B79002B0CBF01230023CF
:102A1800DAB27B6801331A70074B9B79002B0CBF25
:102A280001230023DAB27B6802331A7000BF0C3727
:102A3800BD465DF8047B70470020002080B400AFDD
:102A4800144B5B79002B08D1124B9B79002B0CBFE0
:102A580001230023DAB20F4BDA710E4B5A79013297
:102A6800D2B25A710B4B5B79012B02D9094B002268
:102A78005A71084B9A790132D2B29A71054B9B79F7
:102A8800032B02D9034B00229A7100BFBD465DF8A3
:102A9800047B70470020002080B485B000AF7860C8
:102AA80039607B68012283F8D8203B68D3E900238A
:102AB8007968C1E902237B6801221A600023FB6060
:102AC8000CE07B68D3E902237868F9680231C90011
:102AD8000144C1E90023FB680133FB60FB68182B44
:102AE800EFDD00BF00BF1437BD465DF8047B7047BB
:102AF80080B586B000AF87ED040BF860B9607A60E6
:102B0800BB68D3E902017B68D3E90023FDF75CFFCA
:102B18000346002B05D17B68D3E90023B968C1E9D6
:102B28000223F868BB681033C82219460EF094FBDC
:102B3800F968D7E90423C1E93223FB6803F1D0001F
:102B4800BB681033C02219460EF086FBBB6803F140
:102B58001000FB68C833C82219460EF07DFB00BF81
:102B68001837BD4680BD80B485B000AF7860396045
:102B78007B68012283F860203B68D3E900237968E9
:102B8800C1E902237B6801221A600023FB600CE084
:102B98007B68D3E902237868F9680231C9000144E7
:102BA800C1E90023FB680133FB60FB68092BEFDDFB
:102BB80000BF00BF1437BD465DF8047B704780B581
:102BC80086B000AF87ED040BF860B9607A60BB6827
:102BD800D3E902017B68D3E90023FDF7F5FE03463C
:102BE800002B05D17B68D3E90023B968C1E902232A
:102BF800F868BB681033502219460EF02DFBF968AF
:102C0800D7E90423C1E91423FB6803F15800BB6822
:102C18001033482219460EF01FFBBB6803F1100061
:102C2800FB685033502219460EF016FB00BF1837C8
:102C3800BD4680BD0000000080B584B000AF78605C
:102C48000023FB73824B93F8B030C3F3C203DBB2AB
:102C5800013B032B00F24D8401A252F823F000BF80
:102C6800792C000845310008253400089134000803
:102C7800774BD3E922014FF00002764BFDF7A4FE13
:102C88000346002B0AD1724BD3E922014FF0000210
:102C9800714BFDF799FE0346002B2FD06C4A92F832
:102CA800B030022161F3C50382F8B03068494FF0B3
:102CB80000024FF00003C1E92023654A92F8B030C2
:102CC800012161F3871382F8B030644B002283F846
:102CD8009220624B002283F89020604B002283F8F8
:102CE80091205B4BD3E91C235C49C1E90E23584B67
:102CF800D3E91A235949C1E910231EE2544BD3E9F9
:102D080022014FF00002564BFDF75EFE0346002BF2
:102D180003D00123FB7300F026BC4D4BD3E92201FD
:102D28004FF000024F4BFDF74FFE0346002B24D017
:102D3800474B002283F8E420454A92F8B03003213B
:102D480061F3C50382F8B030444B002283F8922027
:102D5800424B012283F89020404B002283F89120B7
:102D68003E494FF00002404BC1E90E233B4936A3D0
:102D7800D3E90023C1E91023F5E3354BD3E9220158
:102D88004FF00002394BFDF71FFE0346002B02D01F
:102D98000123FB73E7E32E4BD3E922014FF0000236
:102DA8004FF08043FDF710FE0346002B25D0284B3B
:102DB800002283F8E420264A92F8B030052161F316
:102DC800C50382F8B030254B002283F89220234BAC
:102DD800002283F89020214B012283F891201F497B
:102DE8004FF00002224BC1E90E231C494FF00002AC
:102DF8004FF00003C1E91023B5E3154BD3E92201D5
:102E08004FF000021B4BFDF7DFFD0346002B02D0FD
:102E18000123FB73A7E30E4BD3E924014FF0000213
:102E2800154BFDF7DBFD0346002B27D0084BD3E9F4
:102E380024014FF00002084BFDF7A8F902460B46A3
:102E48000349C1E9242344E00000000000C05240C7
:102E58008815002000001C400000F03F10040020EE
:102E6800000008400000104000C052C0000014409C
:102E780000405540000018400000594097494FF065
:102E880000024FF00003C1E92423954BB3F87020EA
:102E9800924BB3F8D6309A4234BF01230023D9B2FB
:102EA8008E4A92F8B13061F3820382F8B1308C4BCC
:102EB800B3F86E20894BB3F8D8309A4234BF012357
:102EC8000023D9B2854A92F8B13061F3410382F800
:102ED800B13083494FF000024FF00003C1E91623D7
:102EE8007F494FF000024FF00003C1E918237C49E5
:102EF8004FF000027B4BC1E9142379494FF00002DF
:102F0800784BC1E91223754BD3E928014FF0000231
:102F1800754BFDF763FD0346002B0DD06F4BD3E9CE
:102F280028014FF000026F4BFDF730F902460B46BF
:102F38006A49C1E9282337E068494FF000024FF099
:102F48000003C1E92423664BB3F87420634BB3F83C
:102F5800D2309A4209D2624BB3F86A205F4BB3F879
:102F6800D4309A4201D2012300E0002303F0010388
:102F7800D9B25A4A92F8B13061F3C30382F8B1303A
:102F880057494FF000024FF00003C1E91423544998
:102F98004FF000024FF00003C1E912234F494FF0F0
:102FA8000002504BC1E926234C4BD3E926014FF0D0
:102FB80000024C4BFDF708FD0346002B00D1D2E27E
:102FC800464B93F8B13003F00403DBB2002B0CBF7F
:102FD80001230023DBB2BB73404B93F8B13003F0FD
:102FE8000203DBB2002B0CBF01230023DBB27B738F
:102FF8003A4B93F8B13003F00803DBB2002B0CD046
:103008007B7B002B09D0BB7B002B06D033494FF0CC
:103018000002344BC1E922238FE0304B93F8B130E2
:1030280003F00803DBB2002B0CBF01230023DBB243
:103038003B73BB7B002B12D0284B93F8B13003F0C5
:103048000203DBB2002B0AD03B7B002B07D02349BD
:103058004FF000024FF08043C1E922236DE07B7BF3
:10306800002B11D03B7B002B0ED01C4B93F8B130BA
:1030780003F00403DBB2002B06D018494FF000021E
:103088001A4BC1E9222358E0BB7B002B0CD03B7BB9
:10309800002B09D07B7B002B06D010494FF0000293
:1030A800134BC1E9222348E00C4B93F8B13003F0ED
:1030B8000203DBB2002B1FD0084B93F8B13003F0AA
:1030C8000403DBB2002B17D03B7B002B14D0034941
:1030D8004FF00002074BC1E922232EE0881500209B
:1030E800100400200000F03F000059400000084094
:1030F8000000104000001440974B93F8B13003F0E3
:103108000403DBB2002B11D07B7B002B0ED0924B3B
:1031180093F8B13003F00803DBB2002B06D08E49D8
:103128004FF000028D4BC1E9222306E08A494FF097
:1031380000028B4BC1E9222315E214E27B681A686E
:10314800854BB3F8D0301B049A425ED2824BD3E948
:1031580020014FF00002834BFDF754FC0346002B7F
:1031680053D07D4A92F8B0306FF3871382F8B030AD
:10317800794A92F8B030012161F3C50382F8B03082
:1031880079494FF000024FF00003C1E90E23764958
:103198004FF000024FF00003C1E91023724B0122E7
:1031A80083F89220704B012283F890206E4B012205
:1031B80083F8912068494FF000024FF00003C1E9FD
:1031C800242365494FF000024FF00003C1E928238A
:1031D80061494FF000024FF00003C1E926235E4A1F
:1031E80092F8B1306FF3C30382F8B1305A4A92F8BB
:1031F800B1306FF3820382F8B130574A92F8B13098
:103208006FF3410382F8B13007E1534BD3E9200152
:103218004FF00002554BFCF7B9FF02460B464E49EA
:10322800C1E920234C4B93F8B030C3F38113DBB2D0
:10323800012B02D0022B3AD09CE04B4BB3F8722002
:10324800454BB3F8BE309A4213D9434A92F8B0308E
:1032580043F0C00382F8B03043494FF00002444BBA
:10326800C1E90E2340493AA3D3E90023C1E9102359
:10327800CEE03D4BB3F86C20374BB3F8C4309A42DC
:1032880040F2C680344A92F8B030022161F38713C5
:1032980082F8B03034494FF00002354BC1E91023B1
:1032A80031492BA3D3E90023C1E90E23B0E02E4B0B
:1032B800B3F87220284BB3F8BE309A4213D9264A85
:1032C80092F8B03043F0C00382F8B03026494FF08E
:1032D8000002274BC1E90E2323491DA3D3E900238C
:1032E800C1E9102396E0204BB3F86C201A4BB3F8D1
:1032F800C4309A4280F08E801B4BB3F87220164B74
:10330800B3F8BE309A4280F08580134A92F8B03004
:10331800012161F3871382F8B030134B002283F840
:103328009220114B002283F890200F4B002283F843
:103338009120094BD3E91C230B49C1E90E23064B05
:10334800D3E91A230849C1E9102363E0AFF30080E9
:103358000000000000C052408815002000001840FE
:1033680000001C4000003940100400200000F03F1D
:1033780000805140944BB3F86C20944BB3F8C430A0
:103388009A4228D2904BB3F87220904BB3F8BE30D3
:103398009A4220D28D4A92F8B030012161F3871306
:1033A80082F8B030884B002283F89220864B0022A6
:1033B80083F89020844B002283F89120834BD3E933
:1033C8001C238149C1E90E23804BD3E91A237E4986
:1033D800C1E9102320E07C4BB3F86C207B4BB3F899
:1033E800C4309A4218D9794A92F8B030022161F370
:1033F800871382F8B03074494FF00002744BC1E96A
:10340800102371496EA3D3E90023C1E90E2303E019
:1034180000BFA8E000BFA6E000BFA4E06B4B93F894
:10342800E430292B40F29A80684A92F8B0300221A1
:1034380061F3C50382F8B03064494FF000024FF0E1
:103448000003C1E92023614A92F8B030012161F3F9
:10345800871382F8B0305C4B002283F892205A4BD5
:10346800002283F89020584B002283F89120574B74
:10347800D3E91C235449C1E90E23544BD3E91A2339
:103488005149C1E9102369E0504B93F8E430192BF6
:1034980066D94E4A92F8B030022161F3C50382F82A
:1034A800B0304A494FF000024FF00003C1E9202331
:1034B800464A92F8B030012161F3871382F8B030A0
:1034C800414B002283F892203F4B002283F8902042
:1034D8003D4B002283F891203C4BD3E91C233A4909
:1034E800C1E90E23394BD3E91A233749C1E910231F
:1034F80036E0364B93F8E430192B33D9334A92F837
:10350800B030022161F3C50382F8B0302F494FF083
:1035180000024FF00003C1E920232C4A92F8B03092
:10352800012161F3871382F8B030274B002283F81A
:103538009220254B002283F89020234B002283F809
:103548009120224BD3E91C231F49C1E90E231F4BAD
:10355800D3E91A231C49C1E9102303E000BF02E0A4
:1035680000BF00E000BFFB7B002B24D0174B0022DC
:1035780083F8E420154A92F8B030042161F3C503BA
:1035880082F8B030104B012283F892200E4B0022B3
:1035980083F890200C4B002283F891200A494FF0C1
:1035A80000024FF00003C1E90E2307494FF0000263
:1035B800084BC1E9102300BF1037BD4680BD00BFCE
:1035C8000000000000C052401004002088150020B0
:1035D800008051400040554080B584B000AF87ED71
:1035E800000B38687B6823F000414FF000022C4B39
:1035F800FDF7F4F90346002B42D04FF00002294BA7
:10360800D7E90001FDF7FEF90346002B13D04FF070
:103618000002244BD7E90001FCF7B8FD02460B462F
:1036280043EC172BB0EE470AF0EE670A0DF018FCD2
:1036380087ED020B28E04FF000021B4BD7E9000191
:10364800FDF7EAF90346002B06D04FF000024FF0D1
:103658000003C7E9022317E04FF00002114BD7E936
:103668000001FCF791FD02460B4643EC172BB0EE28
:10367800470AF0EE670A0DF06BFB87ED020B03E0DB
:10368800D7E90023C7E90223D7E9022343EC172B24
:10369800B0EE470AF0EE670A1037BD4680BD00BF9E
:1036A800000030430000E03F0000E0BF80B58CB070
:1036B80002AF78607B6800221A727B6801225A6028
:1036C8007B681033BB6100237B741A4BFB611A4B78
:1036D8003B620123BB74002387F82430022387F858
:1036E80025300923FB6009233B7407F10C000823EC
:1036F8000093042301220421FEF7ECFC02467B68B8
:10370800DA607B68DB6802211846FEF757FE7B68A3
:10371800DB681846FEF76CFD7B68DB6801211846FC
:10372800FEF7AFFC7B6801221A7200BF2837BD463E
:1037380080BD00BF000104500000024080B5A6B063
:1037480000AF78601A4BBB6000233B7300237B7388
:1037580007F108031846FDF769FF02467B68DA603F
:103768007B68DB6800211846FDF71BFC7B68DB687B
:1037780002211846FDF74AFD7B68DB6802211846DE
:10378800FDF7E4FD7B68DB681846FFF791F8034610
:1037980087F8973097F89730002B05D17B68DB685E
:1037A80000211846FFF79CF800BF9837BD4680BD3A
:1037B8000004004080B5A6B000AF78601A4BBB602B
:1037C80000233B7300237B7307F108031846FDF7BA
:1037D8002DFF02467B68DA607B68DB6800211846AB
:1037E800FDF7DFFB7B68DB6802211846FDF74EFE1C
:1037F8007B68DB6802211846FDF7F0FE7B68DB6812
:103808001846FFF755F8034687F8973097F897302A
:10381800002B05D17B68DB6800211846FFF760F8AC
:1038280000BF9837BD4680BD00040040B0B588B0E1
:1038380000AFFFF703F90023FB610CE09B4AFB692B
:10384800134400221A709A4AFB69002122F81310C7
:10385800FB690133FB61FB69072BEFDD954B002208
:103868001A60954B00221A60944BD3F8A83018467A
:10387800FCF7D8FD924BD3E90C23FDF7AFF80346CC
:10388800002B08D08D4BD3F8A830002B03DB8C4BD2
:10389800D3E9082303E04FF000024FF00003C7E923
:1038A8000423864BD3F8A8301846FCF7BBFD044622
:1038B8000D46834BD3E90A014FF00002814BFCF718
:1038C80063FC02460B4620462946FDF79BF8034653
:1038D800002B04D0794B0022C3F8A82006E0774BD0
:1038E800D3F8A8300133754AC2F8A830734BD3F81F
:1038F800AC301846FCF796FD714BD3E91423FDF75D
:103908006DF80346002B08D06C4BD3F8AC30002B75
:1039180003DB6B4BD3E9102303E04FF000024FF0B9
:103928000003C7E90223654BD3F8AC301846FCF70F
:1039380079FD04460D46624BD3E912014FF00002AF
:10394800604BFCF721FC02460B4620462946FDF752
:1039580059F80346002B04D0584B0022C3F8AC207A
:1039680006E0564BD3F8AC300133544AC2F8AC30B9
:10397800554B7B604FF000024FF00003D7E904017C
:10398800FDF722F80346002B03D14FF40073FB61C7
:1039980001E00023FB61FB6919467868FEF777FEB2
:1039A800FB69DB4303F4007319467868FEF77DFE74
:1039B800454B7B604FF000024FF00003D7E902014E
:1039C800FDF702F80346002B03D14FF48043FB6157
:1039D80001E00023FB61FB6919467868FEF757FE92
:1039E800FB69DB4303F4804319467868FEF75DFE04
:1039F800364B7B6000217868FEF749FE4FF4805112
:103A08007868FEF752FE304B7B6000217868FEF73D
:103A18003EFE4FF400517868FEF747FE2C4B7B6062
:103A2800274BD3E918014FF000024FF00003FCF7D1
:103A3800CBFF0346002B02D18023FB6101E000236A
:103A4800FB61FB6919467868FEF721FEFB69DB43D9
:103A580003F0800319467868FEF727FE1B4B7B604E
:103A6800174BD3E91A014FF000024FF00003FCF79F
:103A7800ABFF0346002B02D10823FB6101E00023C2
:103A8800FB61FB6919467868FEF701FEFB69DB43B9
:103A980003F0080319467868FEF707FE02F0A8F954
:103AA80002F0BCFA00BF2037BD46B0BD08040020B4
:103AB800BC030020B4030020B803002088150020B0
:103AC800000000200000F03F0010004800040048FB
:103AD800000C0048000000002DE9B04FA6B000AF70
:103AE800834BDB68834A04211846FEF796FB804B1C
:103AF800B3F8B430A7F87A307E4BDB897E4AA2F857
:103B080068307C4B1B887C4AA2F87630794B9B89BD
:103B1800794AA2F86A30774B5B88774AA2F8743002
:103B2800744B5B89744AA2F86C30724B9B88724A5A
:103B3800A2F872306F4B1B896F4AA2F86E306D4B3A
:103B4800DB886D4AA2F870300023FB670BE06A4AF5
:103B5800FB6F343332F813306749FA6F21F81230AB
:103B6800FB6F0133FB67FB6F072BF0DD624B5B8854
:103B78001846FCF747FC04460D46604A6049614810
:103B880045EC104BFFF71BF85B4B03F5526353E909
:103B980002235949C1E91E230023FB671CE0FB6F80
:103BA8000133554A03F2A313DB001344D3E900237E
:103BB800C7E91C23504BD3E91E23D7E91C01FCF7A6
:103BC8002BFF0346002B04D04B49D7E91C23C1E93E
:103BD8001E23FB6F0133FB67FB6F082BDFDD464BB2
:103BE80093ED1E7B484A49494948B0EE470AF0EE32
:103BF800670AFEF77DFF404B03F57F6353E9022315
:103C08003D49C1E920230023FB671CE0FB6F01331A
:103C1800394A03F2FD13DB001344D3E90023C7E953
:103C28001C23354BD3E92023D7E91C01FCF7D6FE2A
:103C38000346002B04D03049D7E91C23C1E92023CF
:103C4800FB6F0133FB67FB6F172BDFDD2A4B9B886C
:103C58001846FCF7D7FB04460D462E4A2E492F4836
:103C680045EC104BFEF744FF234B03F5076353E97C
:103C780002232149C1E91E230023FB671CE0FB6FD7
:103C880001331D4A03F20D13DB001344D3E900236B
:103C9800C7E91C23184BD3E91E23D7E91C01FCF7FD
:103CA800BBFE0346002B04D01349D7E91C23C1E906
:103CB8001E23FB6F0133FB67FB6F172BDFDD0E4BFA
:103CC800DB881846FCF79EFB04460D46144A154946
:103CD800154845EC104BFEF70BFF074B03F5AA639D
:103CE80053E902230449C1E922230023FB6739E091
:103CF80088150020CC03002010040020D8000020E4
:103D0800701D002028110020F0000020201F002036
:103D1800F8130020C0000020D01A0020780C0020E2
:103D2800B00000201019002058090020FB6F013353
:103D3800934AA933DB001344D3E90023C7E91C23C2
:103D48008F4BD3E92223D7E91C01FCF765FE034614
:103D5800002B04D08A49D7E91C23C1E92223FB6F31
:103D68000133FB67FB6F172BE0DD854B1B8918467A
:103D7800FCF748FB04460D46824A8349834845ECD4
:103D8800104BFEF7B5FE7E4BD3E9EE23C7E924239B
:103D98000023FB6719E0FB6F0133794A7733DB00B7
:103DA8001344D3E90023C7E91C23D7E91C23D7E927
:103DB8002401FCF713FE0346002B03D0D7E91C238C
:103DC800C7E92423FB6F0133FB67FB6F172BE2DD89
:103DD8006B4B5B891846FCF715FB04460D466C4A8D
:103DE8006C496D4845EC104BFEF782FE644BD3E9F5
:103DF8008A23C7E922230023FB6719E0FB6F0133FD
:103E08005F4A4533DB001344D3E90023C7E91C2389
:103E1800D7E91C23D7E92201FCF7E0FD0346002B74
:103E280003D0D7E91C23C7E92223FB6F0133FB67C3
:103E3800FB6F172BE2DD524B9B891846FCF7E2FA21
:103E480004460D46554A5649564845EC104BFEF770
:103E5800B6FE4B4B03F55C6353E90223C7E9202305
:103E68000023FB671AE0FB6F0133454A03F2B713DF
:103E7800DB001344D3E90023C7E91C23D7E91C233B
:103E8800D7E92001FCF7AAFD0346002B03D0D7E9A8
:103E98001C23C7E92023FB6F0133FB67FB6F082B4B
:103EA800E1DD414A4149424897ED200BFEF720FEEB
:103EB800334B03F5666353E90223C7E92023002344
:103EC800FB671AE0FB6F01332D4A03F2CB13DB00CB
:103ED8001344D3E90023C7E91C23D7E91C23D7E9F6
:103EE8002001FCF799FD0346002B03D0D7E91C23DA
:103EF800C7E92023FB6F0133FB67FB6F172BE1DD5D
:103F08002C4BB3F8B630A7F878302B4AB7F87A308C
:103F180013801B4B93ED207BB0EE470AF0EE670A47
:103F28000CF09EFFB0EE407AF0EE607A9FED121B27
:103F3800B0EE470AF0EE670A0CF0D4FE87ED1C0BD2
:103F48004FF000024FF00003D7E91C01FCF746FDD3
:103F58000346002B32D03B6FBB657B6F83F0004379
:103F6800FB65D7E91601FCF777FD03469BB25B4278
:103F78009BB229E0AFF30080000000000000F04091
:103F880010040020A800002030180020C8070020D6
:103F9800A00000205017002038060020E000002074
:103FA800D81D0020C8110020E8000020401E002075
:103FB8006812002088150020E0030020D7E91C01C2
:103FC800FCF74AFD03469BB2B34A5380B34B93EDCB
:103FD8001E7BB0EE470AF0EE670A0CF041FFB0EE28
:103FE800407AF0EE607A9FEDAA1BB0EE470AF0EE39
:103FF800670A0CF077FE87ED1C0B4FF000024FF0BC
:104008000003D7E91C01FCF7E9FC0346002B0ED09E
:104018003B6F3B657B6F83F000437B65D7E91401F9
:10402800FCF71AFD03469BB25B429BB205E0D7E959
:104038001C01FCF711FD03469BB2974A9380974BEE
:1040480093ED227BB0EE470AF0EE670A0CF008FF0A
:10405800B0EE407AF0EE607A9FED8D1BB0EE470A25
:10406800F0EE670A0CF03EFE87ED1C0B4FF00002E5
:104078004FF00003D7E91C01FCF7B0FC0346002B06
:104088000ED03B6FBB647B6F83F00043FB64D7E9C2
:104098001201FCF7E1FC03469BB25B429BB205E0D0
:1040A800D7E91C01FCF7D8FC03469BB27A4AD380B7
:1040B80097ED240B0CF0D4FEB0EE407AF0EE607A67
:1040C8009FED731BB0EE470AF0EE670A0CF00AFE8C
:1040D80087ED1C0B4FF000024FF00003D7E91C01DD
:1040E800FCF77CFC0346002B0ED03B6F3B647B6FD8
:1040F80083F000437B64D7E91001FCF7ADFC03466D
:104108009BB25B429BB205E0D7E91C01FCF7A4FC1B
:1041180003469BB2604A138197ED220B0CF0A0FE78
:10412800B0EE407AF0EE607A9FED591BB0EE470A88
:10413800F0EE670A0CF0D6FD87ED1C0B4FF000027D
:104148004FF00003D7E91C01FCF748FC0346002B9D
:104158000ED03B6FBB637B6F83F00043FB63D7E9F3
:104168000E01FCF779FC03469BB25B429BB205E06B
:10417800D7E91C01FCF770FC03469BB2464A538101
:1041880097ED200B0CF06CFEB0EE407AF0EE607A02
:104198009FED3F1BB0EE470AF0EE670A0CF0A2FD58
:1041A80087ED1C0B4FF000024FF00003D7E91C010C
:1041B800FCF714FC0346002B0ED03B6F3B637B6F70
:1041C80083F000437B63D7E90C01FCF745FC034609
:1041D8009BB25B429BB205E0D7E91C01FCF73CFCB3
:1041E80003469BB22C4A93812B4AB7F87830D38187
:1041F8002B4BB3F88830284A13822A4BB3F8B830CF
:10420800A7F87A30254B5B881846FCF7FBF804467C
:104218000D46254A2549264845EC104BFEF768FC13
:104228001E4B03F5396353E902231C49C1E92023D6
:104238000023FB671CE0FB6F0133184A03F271137C
:10424800DB001344D3E90023C7E91C23134BD3E94C
:104258002023D7E91C01FCF7C1FB0346002B04D03F
:104268000E49D7E91C23C1E92023FB6F0133FB6703
:10427800FB6F172BDFDD094B03F5076353E90223B7
:10428800C7E920230023FB672FE000BFAFF30080BE
:10429800000000000000F040E003002010040020AF
:1042A8000000002088150020D0000020901C00206D
:1042B800980F0020FB6F01339D4A03F20D13DB00BA
:1042C8001344D3E90023C7E91C23D7E91C23D7E902
:1042D8002001FCF7A1FB0346002B03D0D7E91C23E0
:1042E800C7E92023FB6F0133FB67FB6F172BE1DD69
:1042F8008F4B03F5AA6353E902238D49C1E91E23B5
:104308000023FB671BE0FB6F0133894AA933DB00FD
:104318001344D3E90023C7E91C23854BD3E91E23A3
:10432800D7E91C01FCF75AFB0346002B04D080494F
:10433800D7E91C23C1E91E23FB6F0133FB67FB6F21
:10434800172BE0DD7A4BD3E9EE237949C1E9222323
:104358000023FB671BE0FB6F0133754A7733DB00F3
:104368001344D3E90023C7E91C23714BD3E9222363
:10437800D7E91C01FCF732FB0346002B04D06C493B
:10438800D7E91C23C1E92223FB6F0133FB67FB6FCD
:10439800172BE0DD664BD3E98A23C7E924230023E2
:1043A800FB6719E0FB6F0133614A4533DB001344B7
:1043B800D3E90023C7E91C23D7E91C23D7E9240143
:1043C800FCF72AFB0346002B03D0D7E91C23C7E9D7
:1043D8002423FB6F0133FB67FB6F172BE2DD544B84
:1043E8009B891846FCF70EF804460D46514A524977
:1043F800524845EC104BFEF77BFB4D4B03F5206311
:1044080053E90223C7E922230023FB671AE0FB6F65
:104418000133474A03F23F13DB001344D3E9002377
:10442800C7E91C23D7E91C23D7E92201FCF7F4FAD2
:104438000346002B03D0D7E91C23C7E92223FB6FCF
:104448000133FB67FB6F172BE1DD3D4BB3F8BA3047
:10445800A7F878303B4AB7F87A301380344B93ED9D
:10446800207BB0EE470AF0EE670A0CF0F9FCB0EEDC
:10447800407AF0EE607A9FED2C1BB0EE470AF0EE22
:10448800670A0CF02FFC87ED1C0B4FF000024FF071
:104498000003D7E91C01FCF7A1FA0346002B0ED054
:1044A8003B6FBB627B6F83F00043FB62D7E90A0175
:1044B800FCF7D2FA03469BB25B429BB205E0D7E910
:1044C8001C01FCF7C9FA03469BB21E4A538097EDBC
:1044D800200B0CF0C5FCB0EE407AF0EE607A9FED50
:1044E800121BB0EE470AF0EE670A0CF0FBFB87EDF3
:1044F8001C0B4FF000024FF00003D7E91C01FCF73A
:104508006DFA0346002B1FD03B6F3B627B6F83F035
:1045180000437B62D7E90801FCF79EFA03469BB289
:104528005B429BB216E000BF000000000000F040B4
:1045380010040020C8000020B01B0020080E002036
:1045480088150020F4030020D7E91C01FCF784FA41
:1045580003469BB2B04A9380B04B93ED1E7BB0EEFE
:10456800470AF0EE670A0CF07BFCB0EE407AF0EEFA
:10457800607A9FEDA71BB0EE470AF0EE670A0CF0D1
:10458800B1FB87ED1C0B4FF000024FF00003D7E999
:104598001C01FCF723FA0346002B0ED03B6FBB61CE
:1045A8007B6F83F00043FB61D7E90601FCF754FAFF
:1045B80003469BB25B429BB205E0D7E91C01FCF7BE
:1045C8004BFA03469BB2944AD380944B93ED227BDB
:1045D800B0EE470AF0EE670A0CF042FCB0EE407A03
:1045E800F0EE607A9FED8A1BB0EE470AF0EE670A9C
:1045F8000CF078FB87ED1C0B4FF000024FF0000326
:10460800D7E91C01FCF7EAF90346002B0ED03B6FF3
:104618003B617B6F83F000437B61D7E90401FCF7C2
:104628001BFA03469BB25B429BB205E0D7E91C012B
:10463800FCF712FA03469BB2774A138197ED240BD5
:104648000CF00EFCB0EE407AF0EE607A9FED701B35
:10465800B0EE470AF0EE670A0CF044FB87ED1C0B3E
:104668004FF000024FF00003D7E91C01FCF7B6F940
:104678000346002B0ED03B6FBB607B6F83F000437B
:10468800FB60D7E90201FCF7E7F903469BB25B42FE
:104698009BB205E0D7E91C01FCF7DEF903469BB2A3
:1046A8005D4A538197ED220B0CF0DAFBB0EE407AAD
:1046B800F0EE607A9FED561BB0EE470AF0EE670AFF
:1046C8000CF010FB87ED1C0B4FF000024FF00003BD
:1046D800D7E91C01FCF782F90346002B0ED03B6F8B
:1046E8003B607B6F83F000437B60D7E90001FCF7F8
:1046F800B3F903469BB25B429BB205E0D7E91C01C4
:10470800FCF7AAF903469BB2434A9381424AB7F899
:104718007830D381424BB3F88E203F4B1A82414BFD
:10472800DB79002B13D03D4B1B881846FBF76AFE3C
:1047380002460B463C49C1E91623384BDB8918462B
:10474800FBF760FE02460B463749C1E91823334B95
:10475800B3F86C20314BB3F8723013449BB21A464D
:104768002F4BB3F8803002FB03F33B662F48FDF76D
:1047780082FFF8662E48FDF77EFFB866BB6E03F031
:104788004003002B0CBF01230023DBB287F86730FE
:10479800254B93F8E4307E2B07D8234B93F8E4306D
:1047A8000133DAB2204B83F8E4201F4B93F8B13081
:1047B80003F00103DBB2002B0FD11B4A92F8B13092
:1047C80043F0010382F8B130174A92F8B03005215E
:1047D80061F3020382F8B030BBE3134B93F8B030B7
:1047E800C3F30203DBB2013B032B00F26E8301A289
:1047F80052F823F00D4800083D480008094C00080D
:104808005B4E000807F160031846FEF715FAA0E3AF
:10481800000000000000F040F40300201004002015
:104828000000002000200020881500200004004817
:1048380000100048B64B93F8E430632B40F26E81C9
:10484800B34A92F8B030042161F3020382F8B03021
:10485800B0494FF000024FF00003C1E91023AD4901
:104868004FF000024FF00003C1E90E23A94B0122CB
:1048780083F89120A74B012283F89020A54B0122B1
:1048880083F89220A3494FF000024FF00003C1E9DA
:104898001423A0494FF000024FF00003C1E912238E
:1048A8009C494FF000024FF00003C1E916239949D3
:1048B8004FF000024FF00003C1E91823944BB3F8FE
:1048C800C6301A46924BB3F8C03013443B663B6E71
:1048D800B3F5803F02D34FF6FF733B663B6E184635
:1048E800FBF790FD4FF000028B4BFBF705FE0246ED
:1048F8000B4643EC172BB0EE470AF0EE670AFEF7BB
:104908006BFE53EC102B10461946FCF7A5F803462E
:104918009AB27F4BA3F8C4207D4BB3F8BC301A463B
:104928007B4BB3F8C23013443B663B6EB3F5803F14
:1049380002D34FF6FF733B663B6E1846FBF762FDEA
:104948004FF00002744BFBF7D7FD02460B4643ECD1
:10495800172BB0EE470AF0EE670AFEF73DFE53EC60
:10496800102B10461946FCF777F803469AB2684BA5
:10497800A3F8BE20664BB3F8C2301A46644BB3F8AE
:10498800C03013443B663B6EB3F5803F02D34FF60D
:10499800FF733B663B6E1846FBF734FD4FF0000291
:1049A8005D4BFBF7A9FD02460B4643EC172BB0EE17
:1049B800470AF0EE670AFEF70FFE53EC102B10467D
:1049C8001946FCF749F803469AB2514BA3F8D02090
:1049D8004F4BB3F8DC301A464D4BB3F8DA3013447A
:1049E8003B663B6EB3F5803F02D34FF6FF733B66E1
:1049F8003B6E1846FBF706FD4FF00002464BFBF7EF
:104A08007BFD02460B4643EC172BB0EE470AF0EE4F
:104A1800670AFEF7E1FD51EC100B39A3D3E9002337
:104A2800FBF76AFD02460B4643EC172BB0EE470A2C
:104A3800F0EE670AFEF7D0FD53EC102B104619462E
:104A4800FCF70AF803469AB2314BA3F8D620304B4C
:104A5800B3F8E0301A462E4BB3F8DE3013443B6609
:104A68003B6EB3F5803F02D34FF6FF733B663B6E58
:104A78001846FBF7C7FC4FF00002274BFBF73CFD3D
:104A880002460B4643EC172BB0EE470AF0EE670AD6
:104A9800FEF7A2FD51EC100B19A3D3E90023FBF795
:104AA8002BFD02460B4643EC172BB0EE470AF0EEFF
:104AB800670AFEF791FD53EC102B10461946FBF7D9
:104AC800CBFF03469AB2124BA3F8D820104BB3F889
:104AD800CC200F4BA3F8D2200D4BB3F8CE200C4BB3
:104AE800A3F8D4200A4908A3D3E90023C1E91C2369
:104AF800074905A3D3E90023C1E91A2326E200BF29
:104B0800CDCCCCCCCCCCEC3F0000000000C0524057
:104B180088150020100400200000E03FA04BB3F8E7
:104B2800C020A04BB3F86C309A4205D99D4BB3F81E
:104B38006C209B4BA3F8C020994BB3F8C220994B2B
:104B4800B3F872309A4205D9964BB3F87220944B59
:104B5800A3F8C220924BB3F8C620924BB3F86C303E
:104B68009A4205D28F4BB3F86C208D4BA3F8C62020
:104B78008B4BB3F8BC208B4BB3F872309A4205D2FA
:104B8800884BB3F87220864BA3F8BC20844BB3F84B
:104B9800DA20844BB3F870309A4205D2814BB3F8CF
:104BA80070207F4BA3F8DA207D4BB3F8DE207D4BD5
:104BB800B3F86E309A4205D27A4BB3F86E20784B30
:104BC800A3F8DE20764BB3F8DC20764BB3F87030D0
:104BD8009A4205D9734BB3F87020714BA3F8DC20C7
:104BE8006F4BB3F8E0206F4BB3F86E309A4240F247
:104BF800AD816C4BB3F86E20694BA3F8E020A5E1BA
:104C0800FB6E03F00403002B71D1654BD3E91E0141
:104C18004FF00002644BFBF7D7FE0346002B66D02B
:104C280060494FF000024FF00003C1E914235D49C9
:104C38004FF000024FF00003C1E91223584B002245
:104C480083F8E420564A92F8B030022161F3020357
:104C580082F8B030534B012283F8902051494FF02D
:104C68000002524BC1E916234E494FF000024F4B48
:104C7800C1E918234B4948A3D3E90023C1E910230C
:104C880048494FF000024A4BC1E90E23454BB3F89F
:104C98006C20434BA3F8C020424BB3F87220404B22
:104CA800A3F8C2203F4BB3F86C203D4BA3F8C620B5
:104CB8003C4BB3F872203A4BA3F8BC20394BB3F8FD
:104CC8007020374BA3F8DA20364BB3F86E20344BFC
:104CD800A3F8DE20334BB3F87020314BA3F8DC2067
:104CE800304BB3F86E202E4BA3F8E02031E12D4B6A
:104CF800D3E90E23924683F0004B2A4BC3E90EAB4F
:104D0800284BD3E91023904683F00049254BC3E98B
:104D18001089234BD3E91E014FF00002224BFBF709
:104D28005DFE0346002B45D01D4BB3F8C8301A462C
:104D38001C4BB3F8743013443B663B6EB3F5803FAD
:104D480002D34FF6FF733B663B6E9AB2144BA3F83F
:104D5800C820134BB3F8CA301A46124BB3F86A305E
:104D680013443B663B6EB3F5803F02D34FF6FF73A7
:104D78003B663B6E9AB20A4BA3F8CA20084BD3E9AC
:104D88001E014FF00002094BFBF700FA02460B46E2
:104D98000349C1E91E23DCE00000000000C05240C6
:104DA8008815002010040020000059400000F03F42
:104DB80000C052C0AC4BB3F8C8301846FBF722FB12
:104DC8004FF00002A94BFBF7C1FC02460B4643EC2F
:104DD800172BB0EE470AF0EE670AFEF7FDFB53EC1F
:104DE800102B10461946FBF737FE03469AB29E4B26
:104DF800A3F8CC209C4BB3F8CA301846FBF702FB4B
:104E08004FF00002994BFBF7A1FC02460B4643EC1E
:104E1800172BB0EE470AF0EE670AFEF7DDFB53ECFE
:104E2800102B10461946FBF717FE03469AB28E4B15
:104E3800A3F8CE208E494FF000024FF00003C1E9DD
:104E48000E238B494FF000024FF00003C1E91023F5
:104E58007FE097F86730002B7AD0834A92F8B03019
:104E6800012161F3020382F8B0307F4A92F8B03032
:104E7800022161F3C50382F8B0307B494FF000028C
:104E88004FF00003C1E92023774A92F8B03001219E
:104E980061F3871382F8B030754B002283F89220B3
:104EA800734B002283F89020714B002283F89120E5
:104EB8006D4BD3E91C236E49C1E90E236A4BD3E934
:104EC8001A236B49C1E9102342E097F86730002B99
:104ED8002FD0654A92F8B030032161F3020382F8BB
:104EE800B03061494FF000024FF00003C1E91E23C2
:104EF8005D4B0022A3F8C8205B4B0022A3F8CA2010
:104F08005B4957A3D3E90023C1E90E2358494FF061
:104F18000002584BC1E9102355494FF00002564B87
:104F2800C1E9142352494FF00002534BC1E912233F
:104F38000FE04F4B93F89030002B0CBF0123002358
:104F4800DBB21A464A4B83F8902002E000BF00E02B
:104F580000BF474B494A1A61454BD3E912014FF04C
:104F680000024FF00003FBF72FFD0346002B03D18F
:104F78004FF48073FB6701E00023FB673C4B1B6920
:104F8800FA6F11461846FDF782FB394B1A69FB6F19
:104F9800DB4303F4807319461046FDF786FB344B58
:104FA800364A1A61324BD3E914014FF000024FF030
:104FB8000003FBF709FD0346002B03D14FF4004320
:104FC800FB6701E00023FB67294B1B69FA6F114659
:104FD8001846FDF75CFB264B1A69FB6FDB4303F4AD
:104FE800004319461046FDF760FB214B234A1A611E
:104FF8001F4BD3E916014FF000024FF00003FBF7F7
:10500800E3FC0346002B03D14FF48053FB6701E018
:105018000023FB67164B1B69FA6F11461846FDF70C
:1050280036FB134B1A69FB6FDB4303F480531946B5
:105038001046FDF73AFB0E4B104A1A610C4BD3E9A8
:1050480018014FF000024FF00003FBF7BDFC0346C8
:10505800002B15D14FF40063FB6713E0AFF300801A
:105068000000000000C05240881500200000594090
:105078001004002000C052C00000F03F001000489B
:105088000023FB679A4B1B69FA6F11461846FDF718
:10509800FEFA974B1A69FB6FDB4303F4006319466A
:1050A8001046FDF702FB934B93F8E23087F8663021
:1050B800904BFF2283F8E2208D4BD3E910014FF08B
:1050C80000024FF00003FBF7A7FC0346002B04D0B7
:1050D800884B002283F8E2200FE0854BD3E91001CA
:1050E8004FF000024FF00003FBF782FC0346002B51
:1050F80003D0804B012283F8E2207E4B93F9E23003
:1051080097F966209A4214D097F96630002B02D09E
:10511800012B07D00DE0784BD3E904237449C1E98A
:10512800082306E0744BD3E906237149C1E9062335
:1051380000BF704B93F9E230002B02D0012B07D04F
:105148000DE06B4BD3E910236949C1E9082306E058
:10515800674BD3E910236649C1E9062300BF654BB5
:105168001C6C634BD3E9082310461946FBF794FCE3
:10517800034600EE103A2046FDF74AFB5D4B1C6CD7
:105188005B4BD3E9062310461946FBF785FC07EE6F
:10519800900AF0EEE77AB0EE670A2046FDF74CFB7E
:1051A800544B93F8E33087F86630524BFF2283F86C
:1051B800E3204F4BD3E90E014FF000024FF00003FC
:1051C800FBF72AFC0346002B04D04A4B002283F845
:1051D800E3200FE0464BD3E90E014FF000024FF0F9
:1051E8000003FBF705FC0346002B03D0414B0122CB
:1051F80083F8E3203F4B93F9E33097F966209A420E
:1052080014D097F96630002B02D0012B07D00DE09F
:10521800394BD3E900233649C1E90C2306E0364B64
:10522800D3E902233249C1E90A2300BF314B93F97C
:10523800E330002B02D0012B07D00DE02C4BD3E933
:105248000E232B49C1E90C2306E0294BD3E90E2391
:105258002749C1E90A2300BF264B1C6D244BD3E91B
:105268000C2310461946FBF717FC034600EE103ACC
:105278002046FDF7F5FA1F4B1C6D1D4BD3E90A2399
:1052880010461946FBF708FC07EE900AF0EEE77A9D
:10529800B0EE670A2046FDF7F7FA154B174A1A6170
:1052A800134B93F89230002B03D04FF40053FB6755
:1052B80001E00023FB670E4B1B69FA6F1146184685
:1052C800FDF7E5F90A4B1A69FB6FDB4303F400535A
:1052D80019461046FDF7E9F9054B084A1A61044BCF
:1052E80093F89030002B0BD04FF48043FB6709E014
:1052F8001004002088150020000000200008004845
:105308000023FB671C4B1B69FA6F11461846FDF713
:10531800BEF9194B1A69FB6FDB4303F48043194646
:105328001046FDF7C2F9144B144A1A61124B93F850
:105338009130002B03D04FF40043FB6701E00023BA
:10534800FB670D4B1B69FA6F11461846FDF79FF96D
:10535800094B1A69FB6FDB4303F4004319461046F7
:10536800FDF7A3F900F044FD00F058FE00BF9837A0
:10537800BD46BDE8B08F00BF1004002000080048FB
:10538800B0B58EB000AF9C4BD3E91623C7E908230C
:105398009A4A9B499B4897ED080BFDF7A9FB9A4B46
:1053A80003F5DC6353E90223C7E90C230023FB62FE
:1053B80019E0FB6A0133944ADB33DB001344D3E979
:1053C8000023C7E90823D7E90823D7E90C01FBF72D
:1053D80005FB0346002B03D0D7E90823C7E90C23B4
:1053E800FB6A0133FB62FB6A172BE2DD97ED0C0BBE
:1053F8000BF036FDB0EE407AF0EE607A9FED7C1B44
:10540800B0EE470AF0EE670A0BF06CFC87ED080B6C
:105418004FF000024FF00003D7E90801FBF7DEFA6E
:105428000346002B0ED03B6A3B617B6A83F0004346
:105438007B61D7E90401FBF70FFB03469BB25B4294
:105448009BB205E0D7E90801FBF706FB03469BB2D0
:10545800FB83694BD3E91823C7E908236B4A6C49D6
:105468006C4897ED080BFDF743FB674BD3E9262300
:10547800C7E90C230023FB6219E0FB6A0133624A87
:105488001333DB001344D3E90023C7E90823D7E922
:105498000823D7E90C01FBF7A1FA0346002B03D038
:1054A800D7E90823C7E90C23FB6A0133FB62FB6ACF
:1054B800172BE2DD97ED0C0B0BF0D2FCB0EE407A27
:1054C800F0EE607A9FED4A1BB0EE470AF0EE670AED
:1054D8000BF008FC87ED080B4FF000024FF00003BB
:1054E800D7E90801FBF77AFA0346002B0ED03B6A8E
:1054F800BB607B6A83F00043FB60D7E90201FBF7DE
:10550800ABFA03469BB25B429BB205E0D7E90801C0
:10551800FBF7A2FA03469BB2BB83374ABB8BA2F8C0
:10552800B630354AFB8BA2F8B430374BD3E9262383
:10553800C7E90C230023FB6219E0FB6A0133324AF6
:105548001333DB001344D3E90023C7E90823D7E961
:105558000823D7E90C01FBF75FFA0346002B03D0B9
:10556800D7E90823C7E90C23FB6A0133FB62FB6A0E
:10557800172BE2DD97ED0C0B0BF072FCB0EE407AC6
:10558800F0EE607A9FED1A1BB0EE470AF0EE670A5C
:105598000BF0A8FB87ED080B4FF000024FF000035B
:1055A800D7E90801FBF71AFA0346002B0ED03B6A2D
:1055B8003B607B6A83F000437B60D7E90001FBF71F
:1055C8004BFA03469BB25B429BB205E0D7E9080160
:1055D800FBF742FA03469BB2FB830B4B03F5DC63F4
:1055E80053E90223C7E90C230023FB622EE000BF26
:1055F800000000000000F04088150020B8000020DE
:10560800F0190020E80A002010040020980000206B
:1056180070160020A8040020FB6A0133304ADB33EF
:10562800DB001344D3E90023C7E90823D7E908239B
:10563800D7E90C01FBF7F0F90346002B03D0D7E9B3
:105648000823C7E90C23FB6A0133FB62FB6A172BAB
:10565800E2DD97ED0C0B0BF003FCB0EE407AF0EEB8
:10566800607A9FED1D1BB0EE470AF0EE670A0BF05B
:1056780039FB87ED080B4FF000024FF00003D7E924
:105688000801FBF7ABF90346002B0CD03C6A7B6A98
:1056980083F0004520462946FBF7DEF903469BB216
:1056A8005B429BB205E0D7E90801FBF7D5F9034651
:1056B8009BB2BB830B4AFB8BA2F8BA30094ABB8B5F
:1056C800A2F8B83000F094FB00F0A8FC00BF38370F
:1056D800BD46B0BDAFF30080000000000000F04000
:1056E800100400208815002080B582B000AF002388
:1056F8007B6011E0764B93F89610764A7B681344EA
:105708000A461A70724BB3F88210734A7B6822F803
:1057180013107B6801337B607B68072BEADD6C4BD9
:105728001B6F6E4A13606A4B5B6F6D4A1360684B60
:105738009B6F6C4A1360664BDB6F6B4A1360644B5C
:105748009B6F684A5360624BDB6F674A5360604BDC
:105758009B6F644A93605E4BDB6F634A93600023E0
:105768007B6017E05A4BB3F89010604A7B6822F8C8
:105778001310574BB3F892105D4A7B6822F8131048
:10578800534BB3F894105B4A7B6822F813107B687C
:1057980001337B607B68082BE4DD574BFF2283F8DD
:1057A800E220554BFF2283F8E32000F0B5FB484B7D
:1057B800B3F88420504BA3F8B420454BB3F88620A7
:1057C8004D4BA3F8B620424BB3F88A204A4BA3F8B6
:1057D800B8203F4BB3F88C20474BA3F8BA203C4B7A
:1057E800D3E904234549C1E90823394BD3E9062302
:1057F8004249C1E90623364BD3E900233F49C1E9B1
:105808000C23334BD3E902233C49C1E90A233A4B21
:1058180000225A60384B00221A703748FDF746FFBD
:1058280037493848FDF79FF937493848FDF734F9C3
:1058380037493848FDF730F937493848FDF72CF92A
:1058480037493848FDF728F937493848FDF724F92A
:1058580037493848FDF787F937493848FDF71CF9C3
:1058680037493848FDF718F937493848FDF714F92A
:10587800214B002283F834201F4B002283F83C2060
:105888001D4B01229A633248FDF758FF1A4B01223B
:1058980083F83C20184B002283F84420164B002242
:1058A80083F84C20144B01229A642A48FDF782FFA2
:1058B800114B012283F84C2027492848FDF7ECF8C2
:1058C80027492848FDF7E8F800BF0837BD4680BDDE
:1058D8000000002008040020BC030020B4030020BE
:1058E800B80300209C030020A8030020CC0300205C
:1058F800E0030020F4030020881500201004002095
:10590800D8000020701D0020F0000020201F00207B
:10591800C0000020D01A0020B0000020101900207C
:10592800A800002030180020A000002050170020F8
:10593800E0000020D81D0020E8000020401E0020C4
:10594800D0000020901C0020C8000020B01B0020C0
:10595800BC150020CC150020B8000020F01900204C
:10596800980000207016002080B500AF344B1B78DB
:10597800002B11D1324B01221A70314B5B68012B7D
:105988000AD12F4B1B7A002B06D02D4BDB68012246
:1059980004211846FCF79AFC294B93F83430002B65
:1059A80023D1274B012283F83420254B9B6B012BF5
:1059B8001BD1234B93F83C30002B16D0204B1B6C8B
:1059C8001846FDF70DF81E4B1B6C00211846FBF717
:1059D80082FB1B4B1B6C02211846FBF767FC184B1C
:1059E8001B6C02211846FBF701FD154B93F8443058
:1059F800002B23D1124B012283F84420104B9B6CBF
:105A0800012B1BD10E4B93F84C30002B16D00C4BAE
:105A18001B6D1846FCF7E4FF094B1B6D0021184667
:105A2800FBF759FB064B1B6D02211846FBF782FD5D
:105A3800034B1B6D02211846FBF7E4FD00BF80BD38
:105A48008815002080B489B000AFF860B9607A602A
:105A5800FB68BB610023FB61BB689B087B611B4B38
:105A68001B68B3F5C87F2AD00023FB6122E0174BDF
:105A78001B6817497A6841F82320FB699B00BA69BB
:105A88001A44124B1B681268114903F5C87341F890
:105A980023200E4B1B680F4A12680D4903F5487303
:105AA80041F82320094B1B680133084A1360FB693E
:105AB8000133FB61FA697B699A42D8D300E000BFE1
:105AC8002437BD465DF8047B704700BF08200020DE
