:020000040800F2
:1000000000800120D9150108379D00083F9D000898
:10001000479D00084F9D0008579D00080000000004
:100020000000000000000000000000007D700008DB
:100030005F9D00080000000039700008696F00082B
:100040002916010829160108291601082916010890
:100050002916010829160108291601082916010880
:100060002916010829160108291601086D9D0008A6
:100070007920000829160108291601082916010807
:100080007B9D0008899D0008979D0008291601089E
:100090002916010829160108291601082916010840
:1000A00029160108A59D000829160108291601082E
:1000B0002916010829160108291601082916010820
:1000C0002916010829160108291601082916010810
:1000D0002916010829160108291601082916010800
:1000E00029160108291601082916010829160108F0
:1000F00029160108291601082916010829160108E0
:1001000029160108291601082916010829160108CF
:1001100029160108291601082916010829160108BF
:1001200029160108291601082916010829160108AF
:10013000291601082916010829160108291601089F
:10014000291601082916010829160108B99D000879
:10015000291601082916010829160108291601087F
:10016000291601082916010829160108291601086F
:1001700029160108291601082916010800000000A7
:080180002916010829160108E7
:1001880081F0004102E000BF83F0004330B54FEA40
:1001980041044FEA430594EA050F08BF90EA020FAD
:1001A8001FBF54EA000C55EA020C7FEA645C7FEA40
:1001B800655C00F0E2804FEA5454D4EB5555B8BF63
:1001C8006D420CDD2C4480EA020281EA030382EAD4
:1001D800000083EA010180EA020281EA0303362D66
:1001E80088BF30BD11F0004F4FEA01314FF4801C39
:1001F8004CEA113102D0404261EB410113F0004F4B
:100208004FEA03334CEA133302D0524263EB430301
:1002180094EA050F00F0A780A4F10104D5F1200E9F
:100228000DDB02FA0EFC22FA05F2801841F10001FA
:1002380003FA0EF2801843FA05F359410EE0A5F1CE
:1002480020050EF1200E012A03FA0EFC28BF4CF0FF
:10025800020C43FA05F3C01851EBE37101F00045B5
:1002680007D54FF0000EDCF1000C7EEB00006EEBC2
:100278000101B1F5801F1BD3B1F5001F0CD349084C
:100288005FEA30004FEA3C0C04F101044FEA4452A3
:1002980012F5800F80F09A80BCF1004F08BF5FEA2A
:1002A800500C50F1000041EB045141EA050130BD0A
:1002B8005FEA4C0C404141EB0101013C28BFB1F51C
:1002C800801FE9D291F0000F04BF01460020B1FA67
:1002D80081F308BF2033A3F10B03B3F120020CDA3A
:1002E8000C3208DD02F1140CC2F10C0201FA0CF018
:1002F80021FA02F10CE002F11402D8BFC2F1200C7D
:1003080001FA02F120FA0CFCDCBF41EA0C01904032
:10031800E41AA2BF01EB0451294330BD6FEA04047B
:100328001F3C1CDA0C340EDC04F11404C4F1200266
:1003380020FA04F001FA02F340EA030021FA04F378
:1003480045EA030130BDC4F10C04C4F1200220FACF
:1003580002F001FA04F340EA0300294630BD21FA0D
:1003680004F0294630BD94F0000F83F4801306BFD3
:1003780081F480110134013D4EE77FEA645C18BFC7
:100388007FEA655C29D094EA050F08BF90EA020F5E
:1003980005D054EA000C04BF1946104630BD91EA56
:1003A800030F1EBF0021002030BD5FEA545C05D159
:1003B8004000494128BF41F0004130BD14F5800498
:1003C8003CBF01F5801130BD01F0004545F0FE410C
:1003D80041F470014FF0000030BD7FEA645C1ABF41
:1003E800194610467FEA655C1CBF0B46024650EA78
:1003F800013406BF52EA033591EA030F41F40021A4
:1004080030BD00BF90F0000F04BF0021704730B529
:100418004FF4806404F132044FF000054FF00001FE
:1004280050E700BF90F0000F04BF0021704730B5BF
:100438004FF4806404F1320410F0004548BF404294
:100448004FF000013EE700BF42004FEAE2014FEAE9
:1004580031014FEA02701FBF12F07F4393F07F4FC4
:1004680081F06051704732F07F4208BF704793F0C7
:100478007F4F04BF41F40021704730B54FF46074DA
:1004880001F0004521F000411CE700BF50EA0102DD
:1004980008BF704730B54FF000050AE050EA010286
:1004A80008BF704730B511F0004502D5404261EBF6
:1004B80041014FF4806404F132045FEA915C3FF437
:1004C800D8AE4FF003025FEADC0C18BF03325FEAD4
:1004D800DC0C18BF033202EBDC02C2F1200300FA85
:1004E80003FC20FA02F001FA03FE40EA0E0021FAAA
:1004F80002F11444BDE600BF70B54FF0FF0C4CF498
:10050800E06C1CEA11541DBF1CEA135594EA0C0F49
:1005180095EA0C0F00F0DEF82C4481EA030621EA84
:100528004C5123EA4C5350EA013518BF52EA0335BF
:1005380041F4801143F4801338D0A0FB02CE4FF071
:100548000005E1FB02E506F00042E0FB03E54FF0A1
:100558000006E1FB03569CF0000F18BF4EF0010E99
:10056800A4F1FF04B6F5007F64F5407404D25FEA95
:100578004E0E6D4146EB060642EAC62141EA555148
:100588004FEAC52040EA5E504FEACE2EB4F1FD0C8A
:1005980088BFBCF5E06F1ED8BEF1004F08BF5FEA08
:1005A800500E50F1000041EB045170BD06F00046BA
:1005B80046EA010140EA020081EA0301B4EB5C0467
:1005C800C2BFD4EB0C0541EA045170BD41F480115F
:1005D8004FF0000E013C00F3AB8014F1360FDEBF84
:1005E800002001F0004170BDC4F10004203C35DA60
:1005F8000C341BDC04F11404C4F1200500FA05F3E3
:1006080020FA04F001FA05F240EA020001F0004283
:1006180021F0004110EBD37021FA04F642EB0601F9
:100628005EEA430E08BF20EAD37070BDC4F10C0423
:10063800C4F1200500FA04F320FA05F001FA04F2E7
:1006480040EA020001F0004110EBD37041F10001D3
:100658005EEA430E08BF20EAD37070BDC4F12005DE
:1006680000FA05F24EEA020E20FA04F301FA05F246
:1006780043EA020321FA04F001F0004121FA04F2EE
:1006880020EA020000EBD3705EEA430E08BF20EABE
:10069800D37070BD94F0000F0FD101F000464000F8
:1006A80041EB010111F4801F08BF013CF7D041EA7A
:1006B800060195F0000F18BF704703F0004652007E
:1006C80043EB030313F4801F08BF013DF7D043EA4F
:1006D8000603704794EA0C0F0CEA135518BF95EA05
:1006E8000C0F0CD050EA410618BF52EA4306D1D18C
:1006F80081EA030101F000414FF0000070BD50EAAB
:10070800410606BF1046194652EA430619D094EA34
:100718000C0F02D150EA013613D195EA0C0F05D11E
:1007280052EA03361CBF104619460AD181EA030172
:1007380001F0004141F0FE4141F470014FF000002A
:1007480070BD41F0FE4141F4780170BD70B54FF0C5
:10075800FF0C4CF4E06C1CEA11541DBF1CEA135545
:1007680094EA0C0F95EA0C0F00F0A7F8A4EB050427
:1007780081EA030E52EA03354FEA013100F088801E
:100788004FEA03334FF0805545EA131343EA1263E7
:100798004FEA022245EA111545EA10654FEA00269C
:1007A8000EF000419D4208BF964244F1FD0404F555
:1007B800407402D25B084FEA3202B61A65EB0305B1
:1007C8005B084FEA32024FF480104FF4002CB6EB6E
:1007D800020E75EB030E22BFB61A754640EA0C00EE
:1007E8005B084FEA3202B6EB020E75EB030E22BF2E
:1007F800B61A754640EA5C005B084FEA3202B6EB6F
:10080800020E75EB030E22BFB61A754640EA9C002D
:100818005B084FEA3202B6EB020E75EB030E22BFFD
:10082800B61A754640EADC0055EA060E18D04FEABB
:10083800051545EA16754FEA06164FEAC30343EA5B
:1008480052734FEAC2025FEA1C1CC0D111F4801F28
:100858000BD141EA00014FF000004FF0004CB6E721
:1008680011F4801F04BF01430020B4F1FD0C88BFC0
:10087800BCF5E06F3FF6AFAEB5EB030C04BFB6EBCB
:10088800020C5FEA500C50F1000041EB045170BDBE
:100898000EF0004E4EEA113114EB5C04C2BFD4EBEB
:1008A8000C0541EA045170BD41F480114FF0000E6F
:1008B800013C90E645EA060E8DE60CEA135594EAEB
:1008C8000C0F08BF95EA0C0F3FF43BAF94EA0C0FEE
:1008D8000AD150EA01347FF434AF95EA0C0F7FF463
:1008E80025AF104619462CE795EA0C0F06D152EAB7
:1008F80003353FF4FDAE1046194622E750EA41069B
:1009080018BF52EA43067FF4C5AE50EA41047FF4AB
:100918000DAF52EA43057FF4EBAE12E74FF0FF3C10
:1009280006E000BF4FF0010C02E000BF4FF0010CE1
:100938004DF804CD4FEA410C7FEA6C5C4FEA430C5A
:1009480018BF7FEA6C5C1BD001B050EA410C0CBFA9
:1009580052EA430C91EA030F02BF90EA020F00200B
:10096800704710F1000F91EA030F58BF994208BF72
:1009780090422CBFD8176FEAE37040F0010070472F
:100988004FEA410C7FEA6C5C02D150EA013C07D186
:100998004FEA430C7FEA6C5CD6D152EA033CD3D0D1
:1009A8005DF8040B704700BF8446104662468C46CB
:1009B8001946634600E000BF01B5FFF7B7FF0028FE
:1009C80048BF10F1000F01BD4DF808EDFFF7F4FF27
:1009D8000CBF012000205DF808FB00BF4DF808EDB2
:1009E800FFF7EAFF34BF012000205DF808FB00BFD5
:1009F8004DF808EDFFF7E0FF94BF012000205DF8F7
:100A080008FB00BF4DF808EDFFF7CEFF94BF0120AB
:100A180000205DF808FB00BF4DF808EDFFF7C4FFA4
:100A280034BF012000205DF808FB00BF4FEA410CED
:100A38007FEA6C5C02D150EA013C0AD14FEA430CD0
:100A48007FEA6C5C02D152EA033C02D14FF000000D
:100A580070474FF0010070474FEA410212F500124B
:100A680015D211D56FF47873B3EB625212D94FEAED
:100A7800C12343F0004343EA505311F0004F23FAD7
:100A880002F018BF404270474FF00000704750EA2C
:100A9800013005D111F0004008BF6FF000407047E9
:100AA8004FF00000704700BF4A0011D212F5001243
:100AB80011D20DD56FF47873B3EB62520ED44FEAAE
:100AC800C12343F0004343EA505323FA02F070472E
:100AD8004FF00000704750EA013002D14FF0FF306C
:100AE80070474FF0000070474FEA4102B2F1E0430F
:100AF80024BFB3F5001CDCF1FE5C0DD901F0004CFD
:100B08004FEAC0024CEA5070B2F1004F40EB83004C
:100B180008BF20F00100704711F0804F21D113F178
:100B28003872BCBF01F00040704741F480114FEAB1
:100B38005252C2F11802C2F1200C10FA0CF320FA3A
:100B480002F018BF40F001004FEAC1234FEAD32357
:100B580003FA0CFC40EA0C0023FA02F34FEA4303C1
:100B6800CCE77FEA625307D150EA01331EBF4FF04A
:100B7800FE4040F44000704701F0004040F0FE4065
:100B880040F40000704700BF0348044B834202D082
:100B9800034B03B118477047A0020020A0020020B1
:100BA800000000000548064B1B1AD90F01EBA301F2
:100BB800491002D0034B03B118477047A002002028
:100BC800A00200200000000010B5064C237843B9AD
:100BD800FFF7DAFF044B13B10448AFF30080012399
:100BE800237010BDA0020020000000007C1C01083A
:100BF80008B5054B1BB105490548AFF30080BDE8B2
:100C08000840FFF7CFBF00BF00000000A40200208B
:100C18007C1C010880B485B000AF78607B681B68D5
:100C280003F06003FB60FB68002B04D17B681B6842
:100C380003F01003FB60FB6818461437BD465DF8E7
:100C4800047B704780B483B000AF78607B681B6B0F
:100C580018460C37BD465DF8047B704780B483B0F6
:100C680000AF786039607B681A6A3B681A437B6812
:100C78001A6200BF0C37BD465DF8047B704780B42C
:100C880083B000AF786039607B681A6A3B68DB43E1
:100C98001A407B681A6200BF0C37BD465DF8047BBA
:100CA800704780B483B000AF78607B685B6C43F4B6
:100CB80000427B685A6400BF0C37BD465DF8047B70
:100CC800704780B483B000AF78607B68DB6843F01E
:100CD80001027B68DA6000BF0C37BD465DF8047B13
:100CE800704780B483B000AF78607B68DB6823F01E
:100CF80001027B68DA6000BF0C37BD465DF8047BF3
:100D0800704780B483B000AF78607B68DB6803F01D
:100D18000103012B01D1012300E0002318460C3701
:100D2800BD465DF8047B704780B483B000AF78603F
:100D38007B68DB6843F002027B68DA6000BF0C372F
:100D4800BD465DF8047B704780B483B000AF78601F
:100D58007B68DB6823F002027B68DA6000BF0C372F
:100D6800BD465DF8047B704780B483B000AF7860FF
:100D78007B68DB6803F00203022B01D1012300E04A
:100D8800002318460C37BD465DF8047B704780B4D5
:100D980083B000AF78607B68DB6843F004027B684F
:100DA800DA6000BF0C37BD465DF8047B704780B43D
:100DB80083B000AF78607B68DB6823F004027B684F
:100DC800DA6000BF0C37BD465DF8047B704780B41D
:100DD80083B000AF78607B68DB6803F00403042B02
:100DE80001D1012300E0002318460C37BD465DF809
:100DF800047B704780B483B000AF78607B68DB68A1
:100E080043F008027B68DA6000BF0C37BD465DF826
:100E1800047B704780B483B000AF78607B68DB6880
:100E280023F008027B68DA6000BF0C37BD465DF826
:100E3800047B704780B483B000AF78607B68DB6860
:100E480003F00803082B01D1012300E00023184612
:100E58000C37BD465DF8047B704780B483B000AFA3
:100E680078607B68DB6843F010027B68DA6000BF5B
:100E78000C37BD465DF8047B704780B483B000AF83
:100E880078607B68DB6823F010027B68DA6000BF5B
:100E98000C37BD465DF8047B704780B483B000AF63
:100EA80078607B68DB6803F01003102B01D1012305
:100EB80000E0002318460C37BD465DF8047B7047F8
:100EC80080B483B000AF78607B68DB6843F02002B1
:100ED8007B68DA6000BF0C37BD465DF8047B70475D
:100EE80080B483B000AF78607B68DB6823F02002B1
:100EF8007B68DA6000BF0C37BD465DF8047B70473D
:100F080080B483B000AF78607B68DB6803F02003AF
:100F1800202B01D1012300E0002318460C37BD46E1
:100F28005DF8047B704780B483B000AF78607B685D
:100F3800DB6843F040027B68DA6000BF0C37BD46CF
:100F48005DF8047B704780B483B000AF78607B683D
:100F5800DB6823F040027B68DA6000BF0C37BD46CF
:100F68005DF8047B704780B483B000AF78607B681D
:100F7800DB6803F04003402B01D1012300E000238C
:100F880018460C37BD465DF8047B704780B483B0C3
:100F980000AF78607B68DB6843F080027B68DA60CA
:100FA80000BF0C37BD465DF8047B704780B483B042
:100FB80000AF78607B68DB6823F080027B68DA60CA
:100FC80000BF0C37BD465DF8047B704780B483B022
:100FD80000AF78607B68DB6803F08003802B01D169
:100FE800012300E0002318460C37BD465DF8047B5A
:100FF800704780B582B000AF78600B467B807B88F5
:1010080003F00103002B0CD07B681B681846FFF720
:10101800AAFF0346012B04D07B681B681846FFF71C
:1010280082FF7B8803F00203002B0CD07B681B68CF
:101038001846FFF799FE0346012B04D07B681B680E
:101048001846FFF771FE7B8803F00403002B0CD0D1
:101058007B681B681846FFF7BAFE0346012B04D0CD
:101068007B681B681846FFF792FE7B8803F008032D
:10107800002B0CD07B681B681846FFF7DBFE034685
:10108800012B04D07B681B681846FFF7B3FE7B88EA
:1010980003F01003002B0CD07B681B681846FFF781
:1010A800FCFE0346012B04D07B681B681846FFF73B
:1010B800D4FE7B8803F02003002B0CD07B681B68D0
:1010C8001846FFF71EFE0346012B04D07B681B68F9
:1010D8001846FFF7F6FD7B8803F04003002B0CD081
:1010E8007B681B681846FFF771FF0346012B04D085
:1010F8007B681B681846FFF749FF7B8803F080036D
:10110800002B0CD07B681B681846FFF7F9FE0346D6
:10111800012B04D07B681B681846FFF7D1FE00BF7F
:101128000837BD4680BD80B582B000AF78600B46F9
:101138007B807B8803F00103002B0CD07B681B6845
:101148001846FFF710FF0346012B04D17B681B6884
:101158001846FFF7F8FE7B8803F00203002B0CD03B
:101168007B681B681846FFF7FFFD0346012B04D177
:101178007B681B681846FFF7E7FD7B8803F00403CC
:10118800002B0CD07B681B681846FFF720FE03462F
:10119800012B04D17B681B681846FFF708FE7B8883
:1011A80003F00803002B0CD07B681B681846FFF778
:1011B80041FE0346012B04D17B681B681846FFF7E4
:1011C80029FE7B8803F01003002B0CD07B681B687A
:1011D8001846FFF762FE0346012B04D17B681B68A3
:1011E8001846FFF74AFE7B8803F02003002B0CD03B
:1011F8007B681B681846FFF784FD0346012B04D063
:101208007B681B681846FFF76CFD7B8803F040037A
:10121800002B0CD07B681B681846FFF7D7FE0346E7
:10122800012B04D17B681B681846FFF7BFFE7B883B
:1012380003F08003002B0CD07B681B681846FFF76F
:101248005FFE0346012B04D17B681B681846FFF735
:1012580047FE00BF0837BD4680BD000080B582B09C
:1012680000AF78600B46FB70FB78022B06D17B68D9
:101278001B6801211846FFF7F1FC31E07B681B6809
:10128800194A934213D07B681B68184A93420ED0C0
:101298007B681B68164A934209D07B681B68154A0D
:1012A800934204D07B681B68134A934218D1FB7899
:1012B800032B06D17B681B6804211846FFF7CEFC78
:1012C8000EE0FB78042B0BD17B681B6801211846C4
:1012D800FFF7C4FC7B681B6804211846FFF7BEFCB7
:1012E80000BF0837BD4680BD002C014000340140D6
:1012F80000400140004401400048014080B582B0F0
:1013080000AF78600B46FB70FB78022B06D17B6838
:101318001B6801211846FFF7B2FC31E07B681B68A7
:10132800194A934213D07B681B68184A93420ED01F
:101338007B681B68164A934209D07B681B68154A6C
:10134800934204D07B681B68134A934218D1FB78F8
:10135800032B06D17B681B6804211846FFF78FFC16
:101368000EE0FB78042B0BD17B681B680121184623
:10137800FFF785FC7B681B6804211846FFF77FFC94
:1013880000BF0837BD4680BD002C01400034014035
:1013980000400140004401400048014080B582B04F
:1013A80000AF78600B46FB70FB78022B06D17B6898
:1013B8001B6810211846FFF751FC31E07B681B6859
:1013C800194A934213D07B681B68184A93420ED07F
:1013D8007B681B68164A934209D07B681B68154ACC
:1013E800934204D07B681B68134A934218D1FB7858
:1013F800032B06D17B681B6840211846FFF72EFC9B
:101408000EE0FB78042B0BD17B681B681021184673
:10141800FFF724FC7B681B6840211846FFF71EFC79
:1014280000BF0837BD4680BD002C01400034014094
:1014380000400140004401400048014080B582B0AE
:1014480000AF78600B46FB70FB78022B06D17B68F7
:101458001B6810211846FFF712FC31E07B681B68F7
:10146800194A934213D07B681B68184A93420ED0DE
:101478007B681B68164A934209D07B681B68154A2B
:10148800934204D07B681B68134A934218D1FB78B7
:10149800032B06D17B681B6840211846FFF7EFFB3A
:1014A8000EE0FB78042B0BD17B681B6810211846D3
:1014B800FFF7E5FB7B681B6840211846FFF7DFFB59
:1014C80000BF0837BD4680BD002C014000340140F4
:1014D80000400140004401400048014080B582B00E
:1014E80000AF78600B46FB70FB78022B07D17B6856
:1014F8001B684FF480711846FFF7B0FB34E07B6837
:101508001B681B4A934213D07B681B68194A934295
:101518000ED07B681B68184A934209D07B681B6809
:10152800164A934204D07B681B68154A93421BD124
:10153800FB78032B07D17B681B684FF48061184642
:10154800FFF78CFB10E0FB78042B0DD17B681B6840
:101558004FF480711846FFF781FB7B681B684FF4D6
:1015680080611846FFF77AFB00BF0837BD4680BD8B
:10157800002C01400034014000400140004401407B
:101588000048014080B582B000AF78600B46FB7020
:10159800FB78022B07D17B681B684FF480711846D3
:1015A800FFF76DFB34E07B681B681B4A934213D03E
:1015B8007B681B68194A93420ED07B681B68184ADF
:1015C800934209D07B681B68164A934204D07B6813
:1015D8001B68154A93421BD1FB78032B07D17B6804
:1015E8001B684FF480611846FFF749FB10E0FB7851
:1015F800042B0DD17B681B684FF480711846FFF7E8
:101608003EFB7B681B684FF480611846FFF737FB89
:1016180000BF0837BD4680BD002C014000340140A2
:1016280000400140004401400048014080B582B0BC
:1016380000AF78600B46FB70FB78022B06D17B6805
:101648001B684FF480511846FFF708FB00BF0837A6
:10165800BD4680BD80B582B000AF78600B46FB7098
:10166800FB78022B06D17B681B684FF48051184623
:10167800FFF705FB00BF0837BD4680BD80B584B0C5
:1016880000AF78600023FB607B681B68304A934298
:1016980001D1304BFB607B681A68FB681A60FB68F5
:1016A8001B681846FFF7B6FAB860BB68002B06D06F
:1016B800BB68102B03D0FB6801221A7102E0FB689B
:1016C80000221A71FB681B68234A934213D0FB68F7
:1016D8001B68224A93420ED0FB681B68204A93423B
:1016E80009D0FB681B681F4A934204D0FB681B683B
:1016F8001D4A934204D1FB681B681846FFF7D1FACC
:10170800FB681B68144A934213D0FB681B68134A92
:1017180093420ED0FB681B68114A934209D0FB68BC
:101728001B68104A934204D0FB681B680E4A934218
:1017380008D17B681B681846FFF784FA0346DAB2BB
:10174800FB685A71FB6818461037BD4680BD00BF5C
:1017580000040040BC020020002C0140003401407D
:1017680000400140004401400048014080B485B079
:1017780000AF786039603B68002B03D17B68403349
:10178800FB6001E0044BFB60FB6818461437BD465C
:101798005DF8047B704700BF0C03045080B483B02D
:1017A80000AF78607B68DB6803F44063002B01D1ED
:1017B800012300E0002318460C37BD465DF8047B82
:1017C800704780B483B000AF786039607B681B6B6A
:1017D80023F00F023B681A437B681A6300BF0C377B
:1017E800BD465DF8047B704780B483B000AF786075
:1017F80039607B68DB6823F003023B681A437B6827
:10180800DA6000BF0C37BD465DF8047B704780B4D2
:1018180083B000AF78607B68DB6C03F0C003002BFB
:1018280001D1012300E0002318460C37BD465DF8BE
:10183800047B704780B483B000AF78607B689B6896
:1018480023F0004323F03F0343F001027B689A60D2
:1018580000BF0C37BD465DF8047B704780B483B089
:1018680000AF78607B689B6823F0004323F03F0358
:1018780043F002027B689A6000BF0C37BD465DF8F2
:10188800047B704780B483B000AF78607B689B6846
:1018980003F00103012B01D1012300E000231846C6
:1018A8000C37BD465DF8047B704780B483B000AF49
:1018B800786039607B689B6823F0404323F03F03DE
:1018C8003A6802F08042134343F000427B689A6012
:1018D80000BF0C37BD465DF8047B704780B483B009
:1018E80000AF78607B689B6803F00043B3F1004F5A
:1018F80001D1012300E0002318460C37BD465DF8EE
:10190800047B704780B483B000AF78607B689B68C5
:1019180023F0004323F03F0343F004027B689A60FE
:1019280000BF0C37BD465DF8047B704780B483B0B8
:1019380000AF78607B689B6823F0004323F03F0387
:1019480043F008027B689A6000BF0C37BD465DF81B
:10195800047B704780B483B000AF78607B681B68F5
:1019680003F00803082B01D1012300E000231846E7
:101978000C37BD465DF8047B704780B483B000AF78
:1019880078607B681B6803F01003102B01D10123DA
:1019980000E0002318460C37BD465DF8047B70470D
:1019A80080B483B000AF78607B6810221A6000BFF3
:1019B8000C37BD465DF8047B704780B483B000AF38
:1019C80078607B685B6843F008027B685A6000BFF8
:1019D8000C37BD465DF8047B704780B483B000AF18
:1019E80078607B685B6843F040027B685A6000BFA0
:1019F8000C37BD465DF8047B704780B483B000AFF8
:101A080078607B685B6823F008027B685A6000BFD7
:101A18000C37BD465DF8047B704780B483B000AFD7
:101A280078607B685B6823F010027B685A6000BFAF
:101A38000C37BD465DF8047B704780B483B000AFB7
:101A480078607B685B6823F040027B685A6000BF5F
:101A58000C37BD465DF8047B704780B483B000AF97
:101A680078607B685B6823F080027B685A6000BFFF
:101A78000C37BD465DF8047B704780B483B000AF77
:101A880078607B685B6803F01003102B01D1012399
:101A980000E0002318460C37BD465DF8047B70470C
:101AA80080B483B000AF78607B685B6803F0800324
:101AB800802B01D1012300E0002318460C37BD46D6
:101AC8005DF8047B7047000080B485B000AF786093
:101AD80039607B68FB600C4A3B6813441B781A46E4
:101AE800FB6813441B6808493A680A44127811468F
:101AF800FA680A4443F00103136000BF1437BD4677
:101B08005DF8047B704700BFEC1C010880B485B009
:101B180000AF786039607B68FB600C4A3B6813440F
:101B28001B781A46FB6813441B6808493A680A443C
:101B380012781146FA680A4423F00103136000BFC3
:101B48001437BD465DF8047B704700BFEC1C0108E4
:101B580080B485B000AF786039607B68FB60084A64
:101B68003B6813441B781A46FB6813441B6803F050
:101B7800200318461437BD465DF8047B704700BF44
:101B8800EC1C010880B487B000AFF860B9607A60D7
:101B9800FB687B610D4ABB6813441B781A467B6956
:101BA80013445B681B0C1B040849BA680A44127882
:101BB80011467A690A4411467A6813434B6000BF9C
:101BC8001C37BD465DF8047B704700BFEC1C01085C
:101BD80080B487B000AFF860B9607A603B60FB689A
:101BE8007B613B6A102B14D1174ABB6813441B78DE
:101BF8001A467B6913441A467B68D360124ABB684D
:101C080013441B781A467B6913441A463B68936051
:101C180013E00D4ABB6813441B781A467B691344CA
:101C28001A467B689360084ABB6813441B781A46B7
:101C38007B6913441A463B68D36000BF1C37BD4616
:101C48005DF8047B704700BFEC1C010880B487B0C6
:101C580000AFF860B9607A60FB687B61074ABB68CF
:101C680013441B781A467B6913441A467B689360B1
:101C780000BF1C37BD465DF8047B7047EC1C0108AB
:101C880080B483B000AF78607B681B6803F02003E2
:101C9800202B01D1012300E0002318460C37BD4654
:101CA8005DF8047B704780B483B000AF78607B68D0
:101CB80020225A6000BF0C37BD465DF8047B704790
:101CC80080B485B000AF786039607B68FB600C4AEF
:101CD8003B6813441B781A46FB6813441B68084981
:101CE8003A680A4412781146FA680A4443F0020333
:101CF800136000BF1437BD465DF8047B704700BF12
:101D0800EC1C010880B485B000AF786039607B684E
:101D1800FB600C4A3B6813441B781A46FB68134463
:101D28001B6808493A680A4412781146FA680A4456
:101D380043F00803136000BF1437BD465DF8047B09
:101D4800704700BFEC1C010880B485B000AF786014
:101D580039607B68FB600C4A3B6813441B781A4661
:101D6800FB6813441B6808493A680A44127811460C
:101D7800FA680A4423F00203136000BF1437BD4613
:101D88005DF8047B704700BFEC1C010880B485B087
:101D980000AF786039607B68FB600C4A3B6813448D
:101DA8001B781A46FB6813441B6808493A680A44BA
:101DB80012781146FA680A4423F00403136000BF3E
:101DC8001437BD465DF8047B704700BFEC1C010862
:101DD80080B485B000AF786039607B68FB600C4ADE
:101DE8003B6813441B781A46FB6813441B68084970
:101DF8003A680A4412781146FA680A4423F008033C
:101E0800136000BF1437BD465DF8047B704700BF00
:101E1800EC1C010880B485B000AF786039607B683D
:101E2800FB600A4A3B6813441B781A46FB68134454
:101E38001B6803F00203022B01D1012300E00023F9
:101E480018461437BD465DF8047B7047EC1C010842
:101E580080B584B000AF78600123FB817B681B6983
:101E68001846FFF79BFC0346002B2FD07B685B7A54
:101E7800DBB2022B11D07B685B7ADBB2042B0CD06F
:101E88007B685B7ADBB2082B07D07B681B69184636
:101E9800FFF760FD0346012B18D1786800F0F8F8C9
:101EA8000346002B12D17B685B7ADBB2082B03D187
:101EB8007B6801225A7202E07B6820225A727B6892
:101EC8001B691846FFF71EFD0023FB81FB89184696
:101ED8001037BD4680BD80B586B002AFF860B960E6
:101EE8007A603B600021F868FFF740FC03461A4619
:101EF8007968B868FFF7AAFE0021F868FFF736FC92
:101F080002463B68002100917968B868FFF760FED7
:101F1800BA697968B868FFF735FE7968B868FFF775
:101F2800CFFE7968B868FFF7EDFE7968B868FFF703
:101F3800CBFD00BF1037BD4680BD80B584B000AF73
:101F4800F860B9607A607968B868FFF7DFFD79688A
:101F5800B868FFF71BFF7968B868FFF739FF796839
:101F6800B868FFF7F1FE00227968B868FFF70AFE43
:101F780000BF1037BD4680BD80B584B000AF786023
:101F880039600223FB737B68DB79012B0FD17B68F7
:101F9800DA687B681B685B00D118FB7B7A6812687B
:101FA80002FB03F31A4638680FF056FE0AE07B6816
:101FB800D968FB7B7A68126802FB03F31A46386813
:101FC8000FF04AFE00BF1037BD4680BD80B586B011
:101FD80000AFF860B9607A60FB685A69FB689B7962
:101FE80019461046FFF716FF0346DBB2012B37D11F
:101FF800FB685A69BB68104698470346012B2FD1E6
:10200800FB6804225A72FB685A697B681046984735
:10201800FB685A69FB689B7919461046FFF798FDDB
:102028000346002B19D1FB685A69FB689B7919464E
:102038001046FFF76BFDFB685869FB689B791946EA
:10204800FB681B681A46FFF79DFDFB685A69FB6829
:102058009B7919461046FFF737FD0123FB7501E010
:102068000023FB75FB7D18461837BD4680BD000070
:1020780080B500AF034A04490448FFF7A7FF00BF33
:1020880080BD00BFAF1C0008891C00084803002061
:1020980080B582B000AF78607B681B691846FFF78F
:1020A8006CFC0346DBB2012B07D17B681B69184621
:1020B800FFF776FC7B6810225A727B685B7ADBB28A
:1020C800102B0CBF01230023DBB218460837BD468E
:1020D80080BD80B582B000AF78600B46FB70FB789E
:1020E800012B0DD17B681B691846FFF757FB034688
:1020F800012B12D07B681B691846FFF703FC0CE024
:102108007B681B691846FFF782FB0346012B04D046
:102118007B681B691846FFF709FC00BF0837BD46F6
:1021280080BD000090B589B002AFF860084611463E
:102138001A4603467B810B463B811346FB800023EE
:102148007B61FB681B693C4A934201D13B4B7B6135
:102158007B69002B6BD0FB681A697B691A617B6904
:102168000022DA71FB88012B61D03B89002B47D014
:102178007B695B7ADBB2082B42D0FB68DA687B6943
:10218800DA60FB681A687B691A60FB685A697B69C0
:102198005A61FB689A797B699A71FB681A797B693D
:1021A8001A717B691B69B96A1846FFF70AFB7B89B4
:1021B800012B21D07B89042B16D17B691B69032154
:1021C8001846FFF711FB7B6918697B6959697B69B8
:1021D8009B791C467B69DA687B691B680093134608
:1021E8002246FFF778FE07E07B89022B04D17B6942
:1021F8001B691846FFF7E1FB7B6908225A7216E053
:102208003B89002B13D17B699B7ADBB2082B0ED05C
:10221800FB685A797B695A717B89022B04D17B69E7
:102228001B691846FFF7D9FB7B6908229A727B69FC
:1022380018461C37BD4690BD0001045048030020D5
:1022480080B582B000AF78607B681B691846FFF7DD
:1022580019FB0346002B04D17B681B691846FFF75E
:10226800E9FA00BF0837BD4680BD80B586B000AF2B
:10227800F8600B467A607B810123FB82FB681B694F
:10228800002B46D07B89012B05D1F868FFF7E0FDCC
:102298000346FB823DE07B89042B1FD1FB681B6949
:1022A8001846FFF77BFA0346002B32D0FB68012261
:1022B8005A72FB681B691846FFF724FB00BFFB68CE
:1022C8005B7ADBB2042BFAD17968F868FFF754FE21
:1022D800FB6808225A720023FB821AE07B89022BD2
:1022E80017D1FB685B7ADBB2202B09D0FB685B7ADD
:1022F800DBB2042B04D0FB685B7ADBB2102B08D16D
:10230800FB6808225A727968F868FFF735FE0023DF
:10231800FB82FB8A18461837BD4680BD80B582B05F
:1023280000AF78600B467B8013463B807B681B6957
:102338001846FFF7A7FA0346002B04D07B681B69F1
:102348001846FFF78BFA7B681B691846FFF7A8FB4E
:102358000346002B04D07B681B691846FFF77DFBFA
:102368007B681B691846FFF788FB0346002B04D0DF
:102378007B681B691846FFF750FB3B88002B38D059
:102388007B88012B1AD07B88022B05D17B681B69BF
:102398001846FFF732FB11E07B88042B0ED17B68CF
:1023A80018697B6859697B689B791A46FFF7C5FDF0
:1023B8007B681B6900211846FFF716FA7B68002224
:1023C800DA607B6800221A607B6800225A617B68A9
:1023D80000229A717B6800221A717B6840225A7227
:1023E8007B681A697B681B7919461046FFF7E9F97B
:1023F8000DE07B6800225A717B6840229A727B88C4
:10240800022B04D17B681B691846FFF716FB00BF37
:102418000837BD4680BD000080B584B000AF786045
:102428000B46FB707B681B691846FFF72BFA0346BF
:10243800FB7397F90F30012B04D17B681B69184691
:10244800FFF70CFAFB78002B0FD17B681B697F2103
:102458001846FFF72AFA00BF7B681B691846FFF782
:102468003DFA0346012BF7D040E0FB78012B0FD152
:102478007B681B692C491846FFF717FA00BF7B6871
:102488001B691846FFF72AFA0346012BF7D02DE0FF
:102498007B681B697F211846FFF707FA00BF7B6836
:1024A8001B691846FFF71AFA0346012BF7D00023D9
:1024B800BB8107E000BFBB891BB29BB201339BB253
:1024C8001BB2BB81BB891BB29BB2032BF2D97B68C1
:1024D8001B6915491846FFF7E8F900BF7B681B69B7
:1024E8001846FFF7FBF90346012BF7D00023BB8101
:1024F80007E000BFBB891BB29BB201339BB21BB282
:10250800BB81BB891BB29BB2032BF2D997F90F3061
:10251800012B04D17B681B691846FFF78BF900BFB4
:102528001037BD4680BD00BF00007F4080B483B037
:1025380000AF78607B681B6843F001027B681A6013
:1025480000BF0C37BD465DF8047B704780B483B08C
:1025580000AF78607B681B6823F001027B681A6013
:1025680000BF0C37BD465DF8047B704780B483B06C
:1025780000AF786039607B681B6823F004023B6811
:102588001A437B681A6000BF0C37BD465DF8047BB0
:10259800704780B483B000AF78607B681B6803F035
:1025A800040318460C37BD465DF8047B704780B4B9
:1025B80083B000AF78607B68DB6A18460C37BD468D
:1025C8005DF8047B704780B483B000AF78603960F1
:1025D8007B683A681A6300BF0C37BD465DF8047B18
:1025E800704780B483B000AF786039607B683A6820
:1025F8005A6300BF0C37BD465DF8047B704780B452
:1026080083B000AF786039607B683A689A6300BF2E
:102618000C37BD465DF8047B704780B483B000AFCB
:10262800786039607B683A68DA6300BF0C37BD466A
:102638005DF8047B704780B483B000AF7860396080
:102648007B683A681A6400BF0C37BD465DF8047BA6
:10265800704780B483B000AF78607B685B6B1846C6
:102668000C37BD465DF8047B704780B483B000AF7B
:1026780078607B689B6B18460C37BD465DF8047B19
:10268800704780B483B000AF78607B68DB6B184616
:102698000C37BD465DF8047B704780B483B000AF4B
:1026A80078607B681B6C18460C37BD465DF8047B68
:1026B800704780B483B000AF78607B685B6943F093
:1026C80001027B685A6100BF0C37BD465DF8047B88
:1026D800704780B483B000AF78607B681B69184688
:1026E8000C37BD465DF8047B704780B483B000AFFB
:1026F800786039607B683A689A6100BF0C37BD46DC
:102708005DF8047B704780B483B000AF78603960AF
:102718007B683A689A6200BF0C37BD465DF8047B57
:102728007047000080B584B000AF786087ED000A7C
:10273800D7ED007AF5EEC07AF1EE10FA03D54FF036
:1027480000033B600AE0D7ED007A9FED167AF4EEBD
:10275800C77AF1EE10FA01DD134B3B607B681B680A
:102768001846FFF724FFF8607B681B79002B0CBF25
:1027780001230023DBB21A46FB68134407EE903AA4
:10278800B8EE677AD7ED007A27EE277ADFED056A8B
:10279800C7EE267AFCEEE77A17EE903A184610371D
:1027A800BD4680BD0000C8420000C84280B582B066
:1027B80000AF786039607B681B681846FFF749FFEF
:1027C80002463B68934205D07B681B683968184607
:1027D800FFF707FF00BF0837BD4680BD80B582B050
:1027E80000AF786039607B681B681846FFF73DFFCB
:1027F80002463B68934205D07B681B6839681846D7
:10280800FFF7FDFE00BF0837BD4680BD80B582B02A
:1028180000AF786039607B681B681846FFF731FFA6
:1028280002463B68934205D07B681B6839681846A6
:10283800FFF7F3FE00BF0837BD4680BD80B582B004
:1028480000AF786039607B681B681846FFF725FF82
:1028580002463B68934205D07B681B683968184676
:10286800FFF7E9FE00BF0837BD4680BD80B584B0DC
:1028780000AF786087ED000A97ED000A7868FFF7E7
:1028880051FFF860F9687868FFF790FF00BF1037CC
:10289800BD4680BD80B584B000AF786087ED000A82
:1028A80097ED000A7868FFF73DFFF860F9687868E7
:1028B800FFF794FF00BF1037BD4680BD80B584B0D8
:1028C80000AF786087ED000A97ED000A7868FFF797
:1028D80029FFF860F9687868FFF798FF00BF10379C
:1028E800BD4680BD80B584B000AF786087ED000A32
:1028F80097ED000A7868FFF715FFF860F9687868BF
:10290800FFF79CFF00BF1037BD4680BD80B485B07F
:1029180000AF78607B681B689A68074B1340FB60C0
:10292800FB68062B0CBF01230023DBB218461437C3
:10293800BD465DF8047B70470700010080B584B090
:1029480000AF78600B46FB707B681B681846FFF782
:1029580020FEF860FB78002B1ED07B681B68324A8B
:10296800934213D07B681B68304A93420ED07B6831
:102978001B682F4A934209D07B681B682D4A9342F3
:1029880004D07B681B682C4A934205D17B681B687E
:1029980000211846FFF717FEFB68042B11D07B684F
:1029A8001B6804211846FFF7E1FD7B681B68184681
:1029B800FFF77FFE7B681B68F9681846FFF7D6FDAE
:1029C80004E07B681B681846FFF773FE7B681B688A
:1029D8001846FFF7ABFDFB78002B20D07B681B68FF
:1029E800114A934213D07B681B68104A93420ED059
:1029F8007B681B680E4A934209D07B681B680D4AA6
:102A0800934204D07B681B680B4A934207D17B68CA
:102A18001A687B685B7919461046FFF7D4FD00BF3A
:102A28001037BD4680BD00BF002C01400034014076
:102A380000400140004401400048014080B582B098
:102A480000AF78607B681B681846FFF77FFD00BF02
:102A58000837BD4680BD80B485B000AF7860396066
:102A68007B68012283F8D8203B68D3E90023796882
:102A7800C1E902237B6801221A600023FB600CE095
:102A88007B68D3E902237868F9680231C9000144F8
:102A9800C1E90023FB680133FB60FB68182BEFDDFD
:102AA80000BF00BF1437BD465DF8047B704780B592
:102AB80086B000AF87ED040BF860B9607A60BB6838
:102AC800D3E902017B68D3E90023FDF77DFF0346C4
:102AD800002B05D17B68D3E90023B968C1E902233B
:102AE800F868BB681033C82219460FF0B5F8F968C2
:102AF800D7E90423C1E93223FB6803F1D000BB689E
:102B08001033C02219460FF0A7F8BB6803F1100074
:102B1800FB68C833C82219460FF09EF800BF183763
:102B2800BD4680BD80B485B000AF786039607B68F1
:102B3800012283F860203B68D3E900237968C1E962
:102B480002237B6801221A600023FB600CE07B688B
:102B5800D3E902237868F9680231C9000144C1E960
:102B68000023FB680133FB60FB68092BEFDD00BF26
:102B780000BF1437BD465DF8047B704780B586B04A
:102B880000AF87ED040BF860B9607A60BB68D3E9E1
:102B980002017B68D3E90023FDF716FF0346002BEB
:102BA80005D17B68D3E90023B968C1E90223F86835
:102BB800BB681033502219460FF04EF8F968D7E970
:102BC8000423C1E91423FB6803F15800BB681033E0
:102BD800482219460FF040F8BB6803F11000FB6863
:102BE8005033502219460FF037F800BF1837BD464A
:102BF80080BD000080B584B000AF87ED000B386859
:102C08007B6823F000414FF000022C4BFDF7E6FEF5
:102C18000346002B42D04FF00002294BD7E90001B0
:102C2800FDF7F0FE0346002B13D04FF00002244BB3
:102C3800D7E90001FDF7AAFA02460B4643EC172B29
:102C4800B0EE470AF0EE670A0EF0CAFD87ED020BF8
:102C580028E04FF000021B4BD7E90001FDF7DCFE2E
:102C68000346002B06D04FF000024FF00003C7E9DF
:102C7800022317E04FF00002114BD7E90001FDF7DE
:102C880083FA02460B4643EC172BB0EE470AF0EEE8
:102C9800670A0EF025FD87ED020B03E0D7E9002354
:102CA800C7E90223D7E9022343EC172BB0EE470A02
:102CB800F0EE670A1037BD4680BD00BF0000304304
:102CC8000000E03F0000E0BF80B582B000AF786050
:102CD8007B681B78002B44D0854B002283F80027A3
:102CE800834A92F8E836052161F3030382F8E8364F
:102CF800804B002283F888237E4B002283F88323AD
:102D08007C4B002283F884237A4B002283F88523A6
:102D1800784B012283F88023764B012283F887239E
:102D2800744B012283F88623724B012283F8812396
:102D38006F4A92F8E936012161F3051382F8E93602
:102D48006C4B012283F882236A494FF000026A4BD8
:102D5800C1E9CE2367494FF00002674BC1E9D02390
:102D6800BDE0634B03F5DC6353E902014FF0000259
:102D78004FF00003FDF728FE0346002B60D05C4BA4
:102D880093F80037092B5BD9594A92F8E83609219C
:102D980061F3030382F8E836554B03F5DC63194603
:102DA8004FF000024FF0000341E90223514B00228B
:102DB80083F888234F4B002283F882234D4B00224F
:102DC80083F883234A4B03F5D66319464FF0000274
:102DD8004A4B41E90223464B03F5DC6319464FF0A1
:102DE80000024FF08043C1E90023414B03F5DA6349
:102DF80019464FF00002424B41E902233C4B03F5D0
:102E0800D66319464FF000023E4BC1E90023384B08
:102E1800002283F80027364A92F8E936052161F343
:102E2800030382F8E93633492FA3D3E90023C1E924
:102E3800CE2330492CA3D3E90023C1E9D0234EE0A7
:102E48002B4B03F5DC6353E902014FF000022B4BD7
:102E5800FDF7BAFD0346002B00D140E0244B93F860
:102E68000037092B3BD9224A92F8E836062161F34C
:102E7800030382F8E8361F4B012283F888231D4B91
:102E8800012283F882231B4B012283F88323184BEA
:102E980003F5DA6319464FF000024FF00003C1E969
:102EA8000023134A92F8E836012161F3071382F8E8
:102EB800E8360F4B03F5D863D3E9002310461946CB
:102EC800FDF7CAFD0346013B094A6433DB0013449E
:102ED800D3E90023064901F5D86141E9022300BF7F
:102EE8000837BD4680BD00BF0000000000C052404A
:102EF80048180020D8030020000054400000F03F8C
:102F0800000008400000104080B584B000AF786031
:102F1800396000237B720123FB720023FB600023CE
:102F2800BB7218E0FB68DB007A681344D3E9000140
:102F3800FB68DB003A681344D3E90023FDF744FD3E
:102F48000346002B04D10023FB720123BB7202E06D
:102F5800FB680133FB60BB7A002B02D1FB68022BB4
:102F6800E0DDFB7A002B01D001237B727B7A1846C7
:102F78001037BD4680BD000080B588B000AF7860CE
:102F8800396000237B6118E07B69DB007A681344B1
:102F9800D3E90023AC487969C9000144C1E9002399
:102FA8007B69DB003A68D1184FF000024FF000034C
:102FB800C1E900237B6901337B617B69632BE3DD16
:102FC8000023FB604FF00002A04BC7E90623002353
:102FD8007B6116E17B69612B00F3F2807B69DB0082
:102FE800994A13449A491846FFF78EFF0346002B67
:102FF80013D0D7E90601FDF72FFD034603F100536F
:10300800013BDB003A68D1184FF00002914BC1E94F
:1030180000237B6903337B61E8E07B69DB008A4A34
:1030280013448D491846FFF76FFF0346002B13D052
:10303800D7E90601FDF710FD034603F10053013BF4
:10304800DB003A68D1184FF00002824BC1E9002337
:103058007B6903337B61C9E07B69DB007A4A1344EF
:103068007E491846FFF750FF0346002B13D0D7E9D7
:103078000601FDF7F1FC034603F10053013BDB00B9
:103088003A68D1184FF00002724BC1E900237B69FE
:1030980003337B61AAE07B69DB006B4A1344704908
:1030A8001846FFF731FF0346002B13D0D7E9060176
:1030B800FDF7D2FC034603F10053013BDB003A68FD
:1030C800D1184FF00002674BC1E900237B69033335
:1030D8007B618BE07B69DB005B4A134462491846DD
:1030E800FFF712FF0346002B13D0D7E90601FDF7BF
:1030F800B3FC034603F10053013BDB003A68D118E7
:103108004FF00002574BC1E900237B6903337B6111
:103118006CE07B69DB004C4A134454491846FFF7BE
:10312800F3FE0346002B14D0D7E90601FDF794FC03
:10313800034603F10053013BDB003A68D1184FF016
:1031480000024FF08043C1E900237B6903337B61B0
:103158004CE07B69DB003C4A134445491846FFF7BD
:10316800D3FE0346002B14D0D7E90601FDF774FC03
:10317800034603F10053013BDB003A68D1184FF0D6
:1031880000024FF08043C1E900237B6903337B6170
:103198002CE0D7E90601FDF75FFC034603F1005375
:1031A800013BDB003A68D118274A7B69DB001344EE
:1031B800D3E90023C1E900237B6901337B6115E072
:1031C800D7E90601FDF748FC034603F10053013B2C
:1031D800DB003A68D1181C4A7B69DB001344D3E949
:1031E8000023C1E900237B6901337B614FF00002B2
:1031F800164BD7E90601FCF7C9FF02460B46C7E99B
:1032080006237B69632B7FF7E5AE0023BB7401239C
:10321800FB7400237B610023FB722EE00A4A7B6962
:10322800DB001344D3E900017B69DB003A681344EF
:10323800D3E90023FDF7C8FB0346002B1AD100236E
:10324800FB740123FB7218E0D80300200000F03F54
:10325800F81C010800001040101D0108281D010875
:10326800401D010800000840581D0108701D010894
:10327800881D01087B6901337B61FB7A002B02D131
:103288007B69632BCADDFB7C002B01D00123BB7457
:10329800BB7C002B02D00123FB601EE000237B6176
:1032A80018E07B69DB003A681344D3E900230F4830
:1032B8007969C9000144C1E900237B69DB003A68E8
:1032C800D1184FF000024FF00003C1E900237B69D9
:1032D80001337B617B69632BE3DDFB68002B3FF4E3
:1032E8006FAE00BF00BF2037BD4680BDD8030020A9
:1032F80080B582B000AF7860A74B002283F88423A2
:10330800A54B002283F88523A34B012283F8802351
:10331800A14B012283F887239F4B012283F8862340
:103328009D4B012283F881239B4BB3F852239B4B7F
:10333800B3F8F4369A425AD2974BB3F84C23974BCA
:10334800B3F8F2369A4252D2944B93F80037092BCD
:103358004DD9924B93F8E936C3F30113DBB2032B33
:1033680016D0032B1CDC012B02D0022B08D017E04F
:103378008A4A92F8E93623F0300382F8E9360FE0FA
:10338800864A92F8E93623F0300382F8E93607E0F6
:10339800824A92F8E93623F0300382F8E93600BF12
:1033A8007E4B002283F800277C4A92F8E8360421F5
:1033B80061F3030382F8E836774B002283F8882309
:1033C800754B002283F88223734B002283F88323F2
:1033D80071494FF000024FF00003C1E9CE236E4956
:1033E8004FF000024FF00003C1E9D023FEE07B68F4
:1033F8001B78002B5FD0694B93F8E936C3F30113B0
:10340800DBB2032B16D0032B1CDC012B02D0022BC2
:1034180008D017E0614A92F8E93623F0300382F8C1
:10342800E9360FE05D4A92F8E93623F0300382F876
:10343800E93607E0594A92F8E93623F0300382F872
:10344800E93600BF544B002283F88823524B0022F0
:1034580083F88223504B002283F883234F4A92F843
:10346800E836072161F3030382F8E8364B4B03F58E
:10347800D86319464FF00002494BC1E90023464979
:103488004FF000024FF00003C1E9CE2342494FF04C
:1034980000024FF00003C1E9D023404B03F5DC6381
:1034A80019464FF000023E4B41E902233D493B4893
:1034B800FFF762FD9AE0394B93F8E936C3F301133D
:1034C800DBB2012B02D0022B49D071E0324BB3F8AA
:1034D8004C23314BB3F852339A421BD92E4B00225E
:1034E80083F882232D4A92F8E93643F0300382F8B4
:1034F800E936294B012283F8832327494FF000023C
:10350800294BC1E9CE2324494FF00002274BC1E9DA
:10351800D0236AE0204BB3F84C231F4BB3F8523347
:103528009A4262D21C4B002283F882231B4A92F8EB
:10353800E936022161F3051382F8E936164B0122B8
:1035480083F8882314494FF00002174BC1E9D023B0
:1035580011494FF00002154BC1E9CE2345E00E4B4F
:10356800002283F888230D4A92F8E936012161F395
:10357800051382F8E936084B012283F882230649AD
:103588004FF00002084BC1E9CE2303494FF0000277
:10359800054BC1E9D02329E0D803002048180020B2
:1035A8000000F03F681B002000005440008051409C
:1035B800104B002283F883230F4A92F8E936012141
:1035C80061F3051382F8E9360A4B012283F8822356
:1035D80008494FF00002094BC1E9CE2305494FF0D5
:1035E8000002064BC1E9D02300E000BF00BF083746
:1035F800BD4680BDD8030020481800200000544074
:1036080080B500AFA84B03F5DA63D3E900014FF0AA
:103618000002A64BFDF7D8F90346002B6CD0A24B4D
:1036280093F8E83623F00F03DBB2102B18D19E4B2A
:1036380003F5D863D3E900014FF000029B4BFCF778
:10364800A5FD02460B46984901F5D861C1E900235A
:10365800954A92F8E83623F0F00382F8E83606E057
:10366800914A92F8E83623F0F00382F8E8368E4B58
:10367800002283F800278C4A92F8E836052161F386
:10368800030382F8E8368A4B002283F88823884BA4
:10369800002283F88323864B002283F88423844BFB
:1036A800002283F88523824B012283F88023804BF4
:1036B800012283F887237E4B012283F886237C4BE3
:1036C800012283F88123784A92F8E936012161F3CF
:1036D800051382F8E936764B012283F88223744970
:1036E8004FF00002734BC1E9CE2371494FF000023D
:1036F800704BC1E9D02309E26B4B93F8E836C3F36A
:103708000313DBB2013B092B00F2F58101A252F849
:1037180023F000BF45370008FF3A0008FF3A0008C9
:10372800A5390008FF3A0008F13900082F3A0008C7
:10373800FF3A0008793A0008B53A00085A4B03F5F1
:10374800D86353E90201584B03F5D66353E90223C2
:10375800FDF73AF90346002B29D0534B03F5D863FC
:10376800D3E900014FF00002504BFCF70FFD024671
:103778000B464D4901F5D861C1E900234A4B0022A7
:1037880083F80027484A92F8E836092161F30713BD
:1037980082F8E836464942A3D3E90023C1E9CE239B
:1037A80043493FA3D3E90023C1E9D023AEE13E4B0F
:1037B80003F5D86353E902013B4B03F5DC63D3E916
:1037C8000023FDF701F90346002B30D0364B03F5F3
:1037D800D863D3E900014FF00002344BFCF7D6FC64
:1037E80002460B46304901F5D861C1E900232E4A4B
:1037F80092F8E836032161F3071382F8E8362C497A
:103808004FF000024FF00003C1E9CE2328494FF0E2
:1038180000024FF00003C1E9D023234B03F5DA631C
:1038280019464FF00002214BC1E900236EE11E4BFF
:1038380003F5D86353E902011B4B03F5D663D3E9BB
:103848000023FDF7C1F80346002B37D0164B03F5CC
:10385800D863D3E900014FF00002144BFCF796FC43
:1038680002460B46104901F5D861C1E900230E4B09
:10387800002283F800270C4A92F8E836042161F305
:10388800071382F8E8360A4905A3D3E90023C1E9FA
:10389800CE2307494FF00002074BC1E9D02335E199
:1038A8000000000000C05240481800200000F03F0F
:1038B800D80300200000544000C052C0964B03F5C6
:1038C800D86353E90201944B03F5DA6353E9022301
:1038D800FDF77AF80346002B29D08F4B03F5D86300
:1038E800D3E900014FF000028C4BFCF74FFC024675
:1038F8000B46894901F5D861C1E90023864B0022AE
:1039080083F80027844A92F8E836062161F3071302
:1039180082F8E83682497EA3D3E90023C1E9CE23A1
:103928007F497BA3D3E90023C1E9D023EEE07A4B9A
:1039380003F5D86353E902014FF000024FF000038A
:10394800FDF742F80346002B00D1DFE0724B03F588
:10395800D863D3E900014FF00002704BFCF716FC66
:1039680002460B466C4901F5D861C1E900236A4A51
:1039780092F8E836022161F3071382F8E8366849BD
:103988004FF000024FF00003C1E9CE2364494FF025
:1039980000024FF00003C1E9D023B7E05E4B93F873
:1039A8000037162B40F2A9805B4A92F8E8360521C9
:1039B80061F3071382F8E83659494FF000024FF0D7
:1039C8000003C1E9CE2356494FF000024FF000032F
:1039D800C1E9D023504B03F5DA6319464FF00002D2
:1039E8004E4BC1E9002388E04B4B93F80037032B7B
:1039F80040F28580484B002283F80027464A92F817
:103A0800E836072161F3071382F8E83644494FF096
:103A18000002444BC1E9CE2341493DA3D3E9002329
:103A2800C1E9D0236BE03C4B93F800370B2B68D9E6
:103A3800394A92F8E836082161F3071382F8E83624
:103A480037494FF000024FF00003C1E9CE23344953
:103A58004FF000024FF00003C1E9D0232E4B03F5CD
:103A6800DA6319464FF000022C4BC1E9002348E005
:103A7800294B93F80037032B45D9274B002283F8AD
:103A88000027254A92F8E8360A2161F3071382F8DD
:103A9800E83623491EA3D3E90023C1E9CE232049F0
:103AA8004FF000021F4BC1E9D0232CE01A4B93F8CA
:103AB80000370A2B29D9184A92F8E8360B2161F306
:103AC800071382F8E83616494FF000024FF000035A
:103AD800C1E9CE2312494FF000024FF00003C1E9BB
:103AE800D0230D4B03F5DA6319464FF000020B4B58
:103AF800C1E9002309E000BF08E000BF06E000BFFD
:103B080004E000BF02E000BF00E000BF00BF80BDCE
:103B18000000000000C05240481800200000F03F9C
:103B2800D803002000C052C090B583B000AF7860C1
:103B38003960914B93F88233002B47D08F4A92F823
:103B4800E93623F00F0382F8E9368C4B002283F81C
:103B580000278A4A92F8E836052161F3030382F8C0
:103B6800E836854B002283F88823834B002283F8AC
:103B78008323814B002283F884237F4B002283F820
:103B880085237D4B012283F880237B4B012283F818
:103B98008723794B012283F88623774B012283F808
:103BA8008123764A92F8E936012161F3051382F8F8
:103BB800E93671494FF00002714BC1E9CE236E49D5
:103BC8004FF000026E4BC1E9D0235DE33B681B78E0
:103BD800002B33D0694A92F8E93623F00F0382F8B4
:103BE800E936664A92F8E836072161F3030382F85A
:103BF800E836624B03F5D86319464FF00002614B73
:103C0800C1E900235C494FF000024FF00003C1E90D
:103C1800CE2359494FF000024FF00003C1E9D023E9
:103C2800564B03F5DC6319464FF00002554B41E94A
:103C3800022355495148FFF79FF925E34F4B93F865
:103C4800E936C3F30303DBB2013B072B00F27C82A6
:103C580001A252F823F000BF813C0008BF3C0008D5
:103C6800FD3C00083B3D0008793E0008B73E0008CF
:103C7800F13E000831400008404B93F800370A2B0A
:103C880040F2F1823D4B002283F800273B4A92F82C
:103C9800E936062161F3030382F8E93636494FF025
:103CA80000023A4BC1E9CE23334931A3D3E90023BB
:103CB800C1E9D023D7E2314B93F800370A2B40F201
:103CC800D4822E4B002283F800272C4A92F8E9363A
:103CD800082161F3030382F8E93627494FF000020F
:103CE8002A4BC1E9CE23244921A3D3E90023C1E902
:103CF800D023BAE2214B93F800370A2B40F2B7825F
:103D08001E4B002283F800271C4A92F8E936072147
:103D180061F3030382F8E93617494FF000021B4BA1
:103D2800C1E9CE23144912A3D3E90023C1E9D02362
:103D38009DE27B681B78002B2AD0104B002283F869
:103D480000270E4A92F8E936092161F3030382F845
:103D5800E936094906A3D3E90023C1E9CE23064978
:103D68004FF00002094BC1E9D02382E2AFF3008093
:103D78000000000000C05240D8030020481800206E
:103D8800000054400000F03F681B002000C052C0F3
:103D9800A14BB3F854331C46A04BB3F8EE36184683
:103DA800FCF730FB98A3D3E90023FCF7A5FB0246F8
:103DB8000B4643EC172BB0EE470AF0EE670AFEF706
:103DC80019FF53EC102B10461946FCF745FE034625
:103DD8009C4222DD904BB3F84A331C468F4BB3F814
:103DE800EC361846FCF70EFB87A3D3E90023FCF753
:103DF80083FB02460B4643EC172BB0EE470AF0EE66
:103E0800670AFEF7F7FE53EC102B10461946FCF72D
:103E180023FE03469C4200F32C82804B03F5D863B3
:103E2800D3E9002310461946FCF716FE0346591E2F
:103E38007A4B03F5D663D3E900237848C9000144D7
:103E4800C1E90023754B03F5D863D3E900014FF0AE
:103E58000002734BFCF79AF902460B466F4901F5CD
:103E6800D861C1E900236C4B012283F8822300E268
:103E78006A4B93F80037032B40F2FD81674B002211
:103E880083F80027654A92F8E936092161F30303AC
:103E980082F8E93660495EA3D3E90023C1E9CE235D
:103EA8005D494FF000025F4BC1E9D023E3E15B4B72
:103EB80093F800370B2B40F2E081584A92F8E93624
:103EC800042161F3030382F8E93653494FF00002F5
:103ED8004FF00003C1E9CE234F494FF000024FF0E5
:103EE8000003C1E9D023C8E14C4B93F800370B2BF2
:103EF80040F2C581494B002283F80027474A92F8CF
:103F0800E936012161F3030382F8E93642494FF0AB
:103F180000024FF00003C1E9CE233F494FF00002F1
:103F28004FF00003C1E9D0233B4BB3F854331C4690
:103F38003A4BB3F8EE361846FCF764FA32A3D3E9E5
:103F48000023FCF7D9FA02460B4643EC172BB0EED8
:103F5800470AF0EE670AFEF74DFE53EC102B1046A9
:103F68001946FCF779FD03469C4222DD2A4BB3F83B
:103F78004A331C46294BB3F8EC361846FCF742FA8C
:103F880021A3D3E90023FCF7B7FA02460B4643EC1A
:103F9800172BB0EE470AF0EE670AFEF72BFE53EC3C
:103FA800102B10461946FCF757FD03469C4200F3B8
:103FB80066811A4B03F5D863D3E9002310461946E6
:103FC800FCF74AFD0346591E144B03F5DA6353E91F
:103FD80002231248C9000144C1E900230F4B03F52D
:103FE800D863D3E900014FF000020D4BFCF7CEF87F
:103FF80002460B46094901F5D861C1E90023064B81
:10400800012283F882233AE19A9999999999E93F8B
:104018000000000000C05240D803002048180020CB
:104028000000F03F00C052C09B4B93F800370B2BA9
:1040380040F22781984B002283F80027964A92F88D
:10404800E936032161F3030382F8E93693494FF017
:1040580000024FF00003C1E9CE2390494FF000025F
:104068004FF00003C1E9D0238C4BB3F854331C46FE
:10407800894BB3F8EE361846FCF7C4F984A3D3E9A4
:104088000023FCF739FA02460B4643EC172BB0EE37
:10409800470AF0EE670AFEF7ADFD53EC102B104609
:1040A8001946FCF7D9FC03469C4222DD7B4BB3F84A
:1040B8004A331C46784BB3F8EC361846FCF7A2F99D
:1040C80073A3D3E90023FCF717FA02460B4643EC27
:1040D800172BB0EE470AF0EE670AFEF78BFD53EC9C
:1040E800102B10461946FCF7B7FC03469C4200F318
:1040F800C880694B03F5D863D3E9002310461946F5
:10410800FCF7AAFC0346591E634B03F5DC63D3E9AD
:1041180000236148C9000144C1E900235E4B03F54F
:10412800D863D3E900014FF000025D4BFCF72EF88D
:1041380002460B46584901F5D861C1E90023574B9F
:10414800012283F882239CE0534B93F800370A2B13
:1041580040F29980504B002283F800274E4A92F88B
:10416800E936022161F3030382F8E9364B494FF03F
:1041780000024FF00003C1E9CE2348494FF0000286
:104188004FF00003C1E9D023444BB3F854331C4625
:10419800414BB3F8EE361846FCF734F93CA3D3E9A3
:1041A8000023FCF7A9F902460B4643EC172BB0EEA7
:1041B800470AF0EE670AFEF71DFD53EC102B104678
:1041C8001946FCF749FC03469C4221DD334BB3F802
:1041D8004A331C46304BB3F8EC361846FCF712F954
:1041E8002BA3D3E90023FCF787F902460B4643ECDF
:1041F800172BB0EE470AF0EE670AFEF7FBFC53EC0C
:10420800102B10461946FCF727FC03469C423ADC63
:10421800214B03F5D863D3E9002310461946FCF770
:104228001BFC0346591E1C4B03F5D66353E90223B6
:104238001948C9000144C1E90023174B03F5D863A5
:10424800D3E900014FF00002154BFBF79FFF024630
:104258000B46114901F5D861C1E900230F4B012232
:1042680083F882230FE000BF0EE000BF0CE000BF20
:104278000AE000BF08E000BF06E000BF04E000BF9E
:1042880002E000BF00E000BF00BF0C37BD4690BD94
:104298009A9999999999E93F48180020D8030020DC
:1042A8000000F03F80B58CB002AF78607B680022D8
:1042B8001A727B6801225A607B681033BB61002345
:1042C8007B741A4BFB611A4B3B620123BB740023BE
:1042D80087F82430022387F825300923FB60092357
:1042E8003B7407F10C0008230093042301220421E6
:1042F800FDF718FF02467B68DA607B68DB680221FD
:104308001846FEF789F87B68DB681846FDF798FFC2
:104318007B68DB6801211846FDF7DBFE7B6801221C
:104328001A7200BF2837BD4680BD00BF0001045087
:104338000000024080B5A6B000AF78601A4BBB60A1
:1043480000233B7300237B7307F108031846FDF72E
:1043580095F902467B68DA607B68DB6800211846BD
:10436800FCF747FE7B68DB6802211846FCF776FFFE
:104378007B68DB6802211846FDF710F87B68DB686C
:104388001846FEF7C3FA034687F8973097F8973030
:10439800002B05D17B68DB6800211846FEF7CEFAB2
:1043A80000BF9837BD4680BD0004004080B5A6B068
:1043B80000AF78601A4BBB6000233B7300237B730C
:1043C80007F108031846FDF759F902467B68DA60D9
:1043D8007B68DB6800211846FCF70BFE7B68DB680E
:1043E80002211846FDF77AF87B68DB680221184637
:1043F800FDF71CF97B68DB681846FEF787FA034669
:1044080087F8973097F89730002B05D17B68DB68E1
:1044180000211846FEF792FA00BF9837BD4680BDC6
:104428000004004000000000B0B5ACB000AF0023AD
:10443800C7F88C3010E09E4AD7F88C301A44002315
:1044480013709C49D7F88C20002321F81230D7F834
:104458008C300133C7F88C30D7F88C30072BEADD65
:10446800954A00231360954A00231360944BD3F8B0
:104478004C36944A04211846FDF7F7FE914BDB8928
:10448800914AA2F848338F4B1B888F4AA2F85633BB
:104498008C4B9B898C4AA2F84A338A4B5B888A4AA0
:1044A800A2F85433874B5B89874AA2F84C33854B73
:1044B8009B88854AA2F85233824B1B89824AA2F80C
:1044C8004E33804BDB88804AA2F850330023C7F86C
:1044D8008C3013E07C4AD7F88C3003F5D27332F86D
:1044E80013007949D7F88C3003F5C872034621F8D0
:1044F8001230D7F88C300133C7F88C30D7F88C30AD
:10450800072BE7DD704BB3F820331846FBF77AFF2B
:1045180004460D466D4A6E496E4845EC104BFEF751
:10452800C6FA694B03F51D63D3E900236649C1E95F
:10453800D6230023C7F88C301FE0D7F88C3001331E
:10454800614A03F59D73DB001344D3E90023C7E9EF
:1045580024235D4BD3E9D623D7E92401FCF75CFA81
:104568000346002B04D05849D7E92423C1E9D623B0
:10457800D7F88C300133C7F88C30D7F88C30172B2C
:10458800DBDD514BB3F822331846FBF73BFF0446FB
:104598000D46514A5149524845EC104BFEF7EEFA88
:1045A800494B03F580531033D3E900234649C1E949
:1045B800D8230023C7F88C301FE0D7F88C3001339C
:1045C800414A03F20223DB001344D3E90023C7E97D
:1045D80024233D4BD3E9D823D7E92401FCF71CFA5F
:1045E8000346002B04D03849D7E92423C1E9D8234E
:1045F800D7F88C300133C7F88C30D7F88C30082BBB
:10460800DBDD314B93EDD87B364A37493748B0EE7E
:10461800470AF0EE670AFEF74AFA2B4B03F5975361
:10462800D3E900232849C1E9DA230023C7F88C30ED
:104638001FE0D7F88C300133234A03F51773DB00EA
:104648001344D3E90023C7E924231F4BD3E9DA2312
:10465800D7E92401FCF7C2F90346002B04D01A4914
:10466800D7E92423C1E9DA23D7F88C300133C7F816
:104678008C30D7F88C30172BDBDD134BB3F8243391
:104688001846FBF7BFFE04460D46194A19491A4851
:1046980045EC104BFEF70BFA0B4B03F53663D3E9E9
:1046A80000230949C1E9D8230023C7F88C3045E025
:1046B800D0030020840300207C0300208003002016
:1046C8004818002094030020D80300208000002010
:1046D800D0220020A80D0020A00000205026002095
:1046E800E8130020B800002000280020B816002099
:1046F80088000020B0230020380F0020D7F88C3025
:104708000133944A03F5B673DB001344D3E900235D
:10471800C7E924238F4BD3E9D823D7E92401FCF731
:104728007BF90346002B04D08A49D7E92423C1E941
:10473800D823D7F88C300133C7F88C30D7F88C30B1
:10474800172BDBDD834BB3F826331846FBF75AFEED
:1047580004460D46804A8149814845EC104BFEF7D6
:10476800A6F97C4B03F50463D3E900237949C1E931
:10477800DC230023C7F88C301FE0D7F88C300133D6
:10478800744A03F58473DB001344D3E90023C7E9B3
:104798002423704BD3E9DC23D7E92401FCF73CF947
:1047A8000346002B04D06B49D7E92423C1E9DC2355
:1047B800D7F88C300133C7F88C30D7F88C30172BEA
:1047C800DBDD644BB3F828331846FBF71BFE0446C1
:1047D8000D46644A6449654845EC104BFEF767F995
:1047E8005C4B03F5D663D3E900235A49C1E9DE23BC
:1047F8000023C7F88C301EE0D7F88C300133554AB7
:10480800D633DB001344D3E90023C7E92423514BF3
:10481800D3E9DE23D7E92401FCF7FEF80346002B91
:1048280004D04C49D7E92423C1E9DE23D7F88C30DA
:104838000133C7F88C30D7F88C30172BDCDD454BAB
:10484800B3F82A331846FBF7DDFD04460D46484AFF
:104858004849494845EC104BFEF729F93D4B03F50B
:10486800A463D3E90023C7E92A230023C7F88C30BF
:104878001CE0D7F88C300133364AA433DB001344EC
:10488800D3E90023C7E92423D7E92423D7E92A0158
:10489800FCF7A4F80346002B03D0D7E92423C7E983
:1048A8002A23D7F88C300133C7F88C30D7F88C30EE
:1048B800172BDEDD274BB3F82C331846FBF7A2FD88
:1048C80004460D462D4A2E492E4845EC104BFEF75E
:1048D80055F9204B03F585531033D3E90023C7E975
:1048E80028230023C7F88C301DE0D7F88C3001331B
:1048F800184A03F21623DB001344D3E90023C7E95F
:104908002423D7E92423D7E92801FCF767F80346CD
:10491800002B03D0D7E92423C7E92823D7F88C3004
:104928000133C7F88C30D7F88C30082BDDDD164AF8
:104938001649174897ED280BFEF7B9F8054B03F50C
:104948008A531033D3E90023C7E926230023C7F885
:104958008C303DE0D803002078000020F0210020B2
:10496800180C00207000002010210020880A002068
:104978006800002030200020F8080020A80000204F
:10498800B826002088140020B0000020202700202E
:1049980028150020D7F88C300133AB4A03F22A23BC
:1049A800DB001344D3E90023C7E92423D7E92423F0
:1049B800D7E92601FCF730F80346002B03D0D7E9E6
:1049C8002423C7E92623D7F88C300133C7F88C3065
:1049D800D7F88C30172BDDDD9B4BB3F82E331846F8
:1049E800FBF710FD04460D46984A9949994845EC4D
:1049F800104BFEF75CF8944BD3E9E423C7E928236E
:104A0800914B93EDD67BB0EE470AF0EE670A0CF0B7
:104A1800E7FEB0EE407AF0EE607A9FED891BB0EECB
:104A2800470AF0EE670A0CF023FE87ED240B4FF0DF
:104A380000024FF00003D7E92401FBF7CFFF03463C
:104A4800002B10D0D7F89030BB67D7F8943083F09C
:104A58000043FB67D7E91E01FCF726F803469BB223
:104A68005B429BB205E0D7E92401FCF71DF8034639
:104A78009BB2794A1380744B93EDDA7BB0EE470A08
:104A8800F0EE670A0CF0ACFEB0EE407AF0EE607A19
:104A98009FED6B1BB0EE470AF0EE670A0CF0E8FDDD
:104AA80087ED240B4FF000024FF00003D7E92401F3
:104AB800FBF794FF0346002B10D0D7F890303B67E4
:104AC800D7F8943083F000437B67D7E91C01FBF7E4
:104AD800EBFF03469BB25B429BB205E0D7E924019A
:104AE800FBF7E2FF03469BB25B4A5380564B93EDBC
:104AF800D87BB0EE470AF0EE670A0CF071FEB0EE14
:104B0800407AF0EE607A9FED4E1BB0EE470AF0EE69
:104B1800670A0CF0ADFD87ED240B4FF000024FF053
:104B28000003D7E92401FBF759FF0346002B10D0F7
:104B3800D7F89030BB66D7F8943083F00043FB6613
:104B4800D7E91A01FBF7B0FF03469BB25B429BB261
:104B580005E0D7E92401FBF7A7FF03469BB23E4ACD
:104B68009380394B93EDDC7BB0EE470AF0EE670A91
:104B78000CF036FEB0EE407AF0EE607A9FED301B16
:104B8800B0EE470AF0EE670A0CF072FD87ED240BD1
:104B98004FF000024FF00003D7E92401FBF71EFF96
:104BA8000346002B10D0D7F890303B66D7F89430E6
:104BB80083F000437B66D7E91801FBF775FF0346CE
:104BC8009BB25B429BB205E0D7E92401FBF76CFF7F
:104BD80003469BB2204AD3801B4B93EDDE7BB0EE9D
:104BE800470AF0EE670A0CF0FBFDB0EE407AF0EEF3
:104BF800607A9FED131BB0EE470AF0EE670A0CF0DF
:104C080037FD87ED240B4FF000024FF00003D7E982
:104C18002401FBF7E3FE0346002B1FD0D7F89030A2
:104C2800BB65D7F8943083F00043FB65D7E91601DC
:104C3800FBF73AFF03469BB25B429BB214E000BF0E
:104C4800000000000000F040D803002060000020B1
:104C5800501F002068070020A8030020D7E924017E
:104C6800FBF722FF03469BB2974A138197ED2A0B65
:104C78000CF0B6FDB0EE407AF0EE607A9FED901B36
:104C8800B0EE470AF0EE670A0CF0F2FC87ED240B51
:104C98004FF000024FF00003D7E92401FBF79EFE16
:104CA8000346002B10D0D7F890303B65D7F89430E6
:104CB80083F000437B65D7E91401FBF7F5FE034653
:104CC8009BB25B429BB205E0D7E92401FBF7ECFEFF
:104CD80003469BB27C4A538197ED260B0CF080FD6E
:104CE800B0EE407AF0EE607A9FED751BB0EE470AA1
:104CF800F0EE670A0CF0BCFC87ED240B4FF00002C5
:104D08004FF00003D7E92401FBF768FE0346002BA8
:104D180010D0D7F89030BB64D7F8943083F00043B4
:104D2800FB64D7E91201FBF7BFFE03469BB25B4267
:104D38009BB205E0D7E92401FBF7B6FE03469BB218
:104D4800614A9381614BB3F852305F4A1382604BDA
:104D580003F51D63D3E900235D49C1E9DA23002384
:104D6800C7F88C3037E0D7F88C300133584A7233A3
:104D7800DB001344D3E90023C7E92423D7E924231C
:104D8800D7E92801FBF72AFE0346002B03D0D7E911
:104D98002423C7E92823D7F88C3001334C4A03F57C
:104DA8009D73DB001344D3E90023C7E92423484B50
:104DB800D3E9DA23D7E92401FBF710FE0346002BD9
:104DC80004D04349D7E92423C1E9DA23D7F88C3042
:104DD8000133C7F88C30D7F88C30172BC3DD97ED2B
:104DE800280B0CF0FDFCB0EE407AF0EE607A9FEDF7
:104DF800341BB0EE470AF0EE670A0CF039FC87ED79
:104E0800240B4FF000024FF00003D7E92401FBF711
:104E1800E5FD0346002B10D0D7F890303B64D7F857
:104E2800943083F000437B64D7E91001FBF73CFE24
:104E380003469BB25B429BB205E0D7E92401FBF72E
:104E480033FE03469BB2204AD381214BB3F8223369
:104E58001846FBF7D7FA04460D461E4A1E491F4856
:104E680045EC104BFDF723FE194B03F56863D3E9B6
:104E78000023C7E92623164B03F53663D3E900233D
:104E88001349C1E9D823124B03F50463D3E900237E
:104E98000F49C1E9DC230E4B03F5D663D3E90023A0
:104EA8000B49C1E9DE230A4B03F5A463D3E90023C8
:104EB800C7E92A230023C7F88C3097E0AFF30080B6
:104EC800000000000000F040A803002000000020BF
:104ED800D8030020980000207025002058120020D8
:104EE800D7F88C300133A84A03F5E873DB00134484
:104EF800D3E90023C7E92423D7E92423D7E92601E6
:104F0800FBF78AFD0346002B03D0D7E92423C7E922
:104F18002623D7F88C3001339B4A03F5B673DB00A0
:104F28001344D3E90023C7E92423974BD3E9D823B3
:104F3800D7E92401FBF752FD0346002B04D0924920
:104F4800D7E92423C1E9D823D7F88C3001338E4A16
:104F580003F58473DB001344D3E90023C7E9242352
:104F6800894BD3E9DC23D7E92401FBF737FD034656
:104F7800002B04D08449D7E92423C1E9DC23D7F8DE
:104F88008C300133804AD633DB001344D3E9002345
:104F9800C7E924237C4BD3E9DE23D7E92401FBF7B7
:104FA8001DFD0346002B04D07749D7E92423C1E926
:104FB800DE23D7F88C300133734AA433DB00134463
:104FC800D3E90023C7E92423D7E92423D7E92A0111
:104FD800FBF722FD0346002B03D0D7E92423C7E9BA
:104FE8002A23D7F88C300133C7F88C30D7F88C30A7
:104FF800172B7FF775AF644BB3F82C331846FBF7C4
:1050080001FA04460D46614A6149624845EC104B75
:10501800FDF74DFD5C4B03F54F63D3E90023C7E96A
:105028002823594BD3E9E4235749C1E9D623002360
:10503800C7F88C3037E0D7F88C300133524A03F583
:10504800CF73DB001344D3E90023C7E92423D7E94E
:105058002423D7E92801FBF7DFFC0346002B03D004
:10506800D7E92423C7E92823D7F88C300133464AE7
:105078007233DB001344D3E90023C7E92423424BEE
:10508800D3E9D623D7E92401FBF7A8FC0346002B74
:1050980004D03D49D7E92423C1E9D623D7F88C3079
:1050A8000133C7F88C30D7F88C30172BC3DD364B5B
:1050B80093EDDA7BB0EE470AF0EE670A0CF090FB4E
:1050C800B0EE407AF0EE607A9FED2D1BB0EE470A05
:1050D800F0EE670A0CF0CCFA87ED240B4FF00002D3
:1050E8004FF00003D7E92401FBF778FC0346002BB7
:1050F80010D0D7F89030BB63D7F8943083F00043D2
:10510800FB63D7E90E01FBF7CFFC03469BB25B427A
:105118009BB205E0D7E92401FBF7C6FC03469BB226
:105128001D4A138097ED260B0CF05AFBB0EE407A1F
:10513800F0EE607A9FED121BB0EE470AF0EE670AB8
:105148000CF096FA87ED240B4FF000024FF00003A5
:10515800D7E92401FBF742FC0346002B1ED0D7F801
:1051680090303B63D7F8943083F000437B63D7E9F2
:105178000C01FBF799FC03469BB25B429BB213E020
:10518800000000000000F040D8030020900000203C
:1051980090240020C8100020BC030020D7E9240177
:1051A800FBF782FC03469BB2AB4A5380AB4B93EDB3
:1051B800D87BB0EE470AF0EE670A0CF011FBB0EEB0
:1051C800407AF0EE607A9FEDA21BB0EE470AF0EE4F
:1051D800670A0CF04DFA87ED240B4FF000024FF0F0
:1051E8000003D7E92401FBF7F9FB0346002B10D095
:1051F800D7F89030BB62D7F8943083F00043FB6255
:10520800D7E90A01FBF750FC03469BB25B429BB20D
:1052180005E0D7E92401FBF747FC03469BB28E4A19
:1052280093808E4B93EDDC7BB0EE470AF0EE670A75
:105238000CF0D6FAB0EE407AF0EE607A9FED841B5F
:10524800B0EE470AF0EE670A0CF012FA87ED240B6D
:105258004FF000024FF00003D7E92401FBF7BEFB33
:105268000346002B10D0D7F890303B62D7F8943023
:1052780083F000437B62D7E90801FBF715FC03467E
:105288009BB25B429BB205E0D7E92401FBF70CFC1B
:1052980003469BB2704AD380704B93EDDE7BB0EE31
:1052A800470AF0EE670A0CF09BFAB0EE407AF0EE8F
:1052B800607A9FED671BB0EE470AF0EE670A0CF0C4
:1052C800D7F987ED240B4FF000024FF00003D7E920
:1052D8002401FBF783FB0346002B10D0D7F890304E
:1052E800BB61D7F8943083F00043FB61D7E906012E
:1052F800FBF7DAFB03469BB25B429BB205E0D7E9BA
:105308002401FBF7D1FB03469BB2534A138197ED67
:105318002A0B0CF065FAB0EE407AF0EE607A9FED59
:105328004C1BB0EE470AF0EE670A0CF0A1F987EDC6
:10533800240B4FF000024FF00003D7E92401FBF7DC
:105348004DFB0346002B10D0D7F890303B61D7F8BF
:10535800943083F000437B61D7E90401FBF7A4FB99
:1053680003469BB25B429BB205E0D7E92401FBF7F9
:105378009BFB03469BB2384A538197ED280B0CF0F0
:105388002FFAB0EE407AF0EE607A9FED311BB0EE66
:10539800470AF0EE670A0CF06BF987ED240B4FF023
:1053A80000024FF00003D7E92401FBF717FB03467F
:1053B800002B10D0D7F89030BB60D7F8943083F02A
:1053C8000043FB60D7E90201FBF76EFB03469BB283
:1053D8005B429BB205E0D7E92401FBF765FB034676
:1053E8009BB21D4A93811D4B93EDD67BB0EE470AC5
:1053F800F0EE670A0CF0F4F9B0EE407AF0EE607A5D
:105408009FED131BB0EE470AF0EE670A0CF030F977
:1054180087ED240B4FF000024FF00003D7E9240179
:10542800FBF7DCFA0346002B1AD0D7F890303B6024
:10543800D7F8943083F000437B60D7E90001FBF78D
:1054480033FB03469BB25B429BB20FE0AFF3008095
:10545800000000000000F040BC030020D80300203A
:10546800D7E92401FBF720FB03469BB2B34AD3815B
:10547800B34BB3F85420B14B1A82B248FDF729F95F
:10548800C7F88800D7F8883003F00403002B0CBF56
:1054980001230023DBB287F88630AB48FDF719F902
:1054A800C7F88800D7F8883003F04003002B0CBFFA
:1054B80001230023DBB287F88730A44B93F8003729
:1054C8003E2B07D8A14B93F800370133DAB29F4B34
:1054D80083F800279D4B93F8E93603F04003DBB2CD
:1054E800002B27D1994A92F8E93643F0400382F815
:1054F800E936964A92F8E8360A2161F3030382F8FE
:10550800E836934B002283F88023914B002283F8DE
:1055180087238F4B002283F884238D4B002283F846
:1055280085238B4B002283F88623894B002283F83E
:105538008123B8E3854B93F8E836C3F30303DBB262
:10554800013B082B00F2548301A252F823F000BF5C
:105558007D5500088F56000809590008895A000827
:10556800955A0008A15A0008A75A0008535B00087A
:10557800E75B0008764B002283F88423744B0022F3
:1055880083F88523724B012283F88023704B012214
:1055980083F887236E4B012283F886236C4B012204
:1055A80083F88123694B93F80037312B31D9674A47
:1055B80092F8E836082161F3030382F8E836644973
:1055C8004FF000024FF00003C1E9D02360494FF0CB
:1055D80000024FF00003C1E9CE235D4B012283F89E
:1055E80083235B4B012283F88823594B012283F8DC
:1055F80082234FF44872002154480CF0FBFA534BB5
:1056080003F5D86319464FF00002524BC1E9002355
:1056180046E34E4BB3F8F2264D4BB3F84C339A425F
:1056280005D94B4BB3F84C23484BA3F8F226474B0C
:10563800B3F8F426464BB3F852339A4205D9444B93
:10564800B3F85223414BA3F8F426404BB3F8F6269F
:105658003F4BB3F84C339A4205D23D4BB3F84C2339
:105668003A4BA3F8F626394BB3F8F026384BB3F883
:1056780052339A4280F01483354BB3F85223334B9C
:10568800A3F8F0260CE3324B002283F88423304B36
:10569800002283F885232E4B012283F880232C4B8C
:1056A800012283F887232A4B012283F88623284B7B
:1056B800012283F8812397F88730002B00F0CE80F1
:1056C800224BB3F8F8361846FAF79CFE1F4B03F541
:1056D800D46353E90223FBF739F802460B4643EC3F
:1056E800172BB0EE470AF0EE670AFDF783FA87ED4D
:1056F800240B4FF00002184BD7E92401FBF76EF991
:105708000346002B2AD04FF000024FF00003D7E9E0
:105718002401FBF777F90346002B09D0D7E92401C8
:10572800FBF7C2F903469AB2084BA3F8EE261AE033
:10573800064B0022A3F8EE2615E000BFBC030020AC
:10574800000000200004004800100048481800200D
:10575800D80300200000F03F0000F040A04B4FF6B7
:10576800FF72A3F8EE269E4BB3F8FA361846FAF7FE
:1057780049FE9B4B03F5D46353E90223FAF7E6FF8E
:1057880002460B4643EC172BB0EE470AF0EE670AC9
:10579800FDF730FA87ED240B4FF00002914BD7E963
:1057A8002401FBF71BF90346002B19D04FF0000228
:1057B8004FF00003D7E92401FBF724F90346002B37
:1057C80009D0D7E92401FBF76FF903469AB2844B55
:1057D800A3F8EC2609E0824B0022A3F8EC2604E0AB
:1057E8007F4B4FF6FF72A3F8EC267F4B002283F81D
:1057F80082237B4B002283F80027794A92F8E83607
:10580800012161F3030382F8E836774B012283F81C
:105818008323754970A3D3E90023C1E9D0237249D2
:105828004FF00002714BC1E9CE236F4BB3F84C2304
:105838006B4BA3F8F2266C4BB3F85223684BA3F8D2
:10584800F426694BB3F84C23654BA3F8F626664B50
:10585800B3F85223624BA3F8F02624E2604B03F519
:10586800D46353E902014FF00002614BFBF7B6F82D
:105878000346002B00D116E2594BB3F8F8361A4606
:10588800594BB3F854331344C7F88830D7F88830E5
:10589800B3F5803F03D34FF6FF73C7F88830D7F8C6
:1058A80088309AB24E4BA3F8F8264D4BB3F8FA3627
:1058B8001A464D4BB3F84A331344C7F88830D7F823
:1058C8008830B3F5803F03D34FF6FF73C7F88830AD
:1058D800D7F888309AB2424BA3F8FA26404B03F522
:1058E800D46353E902014FF00002424BFAF74EFC31
:1058F80002460B463A4901F5D46141E90223D2E157
:10590800394B012283F88423374B012283F88523FE
:10591800354B002283F88023334B002283F88723FA
:10592800314B002283F886232F4B002283F88123F2
:1059380097F88630002B3ED0294A92F8E8360221A3
:1059480061F3030382F8E836274B002283F88823A3
:10595800254B012283F88223234B002283F88323DB
:10596800214B002283F884231F4B002283F88523D0
:105978001D4B012283F880231B4B012283F88723C8
:10598800194B012283F88623174B012283F88123C0
:10599800134B03F5D46319464FF000024FF0000390
:1059A80041E902230E4B0022A3F8F8260C4B0022F3
:1059B800A3F8FA2677E10A4B03F5D463D3E900018B
:1059C8004FF000020A4BFBF709F80346002B13D1EE
:1059D80069E100BFAFF300800000000000C0524042
:1059E800481800200000F040D803002000C052C032
:1059F8000040BF400000F03FB24BB3F8FC361A46F7
:105A0800B14BB3F850331344C7F88830D7F888300F
:105A1800B3F5803F03D34FF6FF73C7F88830D7F844
:105A280088309AB2A74BA3F8FC26A64BB3F8FE36EB
:105A38001A46A54BB3F84E331344C7F88830D7F845
:105A48008830B3F5803F03D34FF6FF73C7F888302B
:105A5800D7F888309AB29B4BA3F8FE26994B03F5EA
:105A6800D463D3E900014FF00002984BFAF78EFB9C
:105A780002460B46934901F5D461C1E9002312E1BE
:105A880007F186031846FDF71FF90CE107F18703B4
:105A98001846FDF72DFC06E1FDF7B2FD03E197F886
:105AA8008630002B44D0874B002283F80027854A94
:105AB80092F8E836052161F3030382F8E836824B51
:105AC800002283F88823804B002283F883237E4BAF
